{
  "_format": "hh-sol-artifact-1",
  "contractName": "TicquetteNFT",
  "sourceName": "contracts/TicquetteNFT.sol",
  "abi": [
    {
      "inputs": [
        {
          "internalType": "address",
          "name": "initialOwner",
          "type": "address"
        }
      ],
      "stateMutability": "nonpayable",
      "type": "constructor"
    },
    {
      "anonymous": false,
      "inputs": [
        {
          "indexed": true,
          "internalType": "address",
          "name": "owner",
          "type": "address"
        },
        {
          "indexed": true,
          "internalType": "address",
          "name": "approved",
          "type": "address"
        },
        {
          "indexed": true,
          "internalType": "uint256",
          "name": "tokenId",
          "type": "uint256"
        }
      ],
      "name": "Approval",
      "type": "event"
    },
    {
      "anonymous": false,
      "inputs": [
        {
          "indexed": true,
          "internalType": "address",
          "name": "owner",
          "type": "address"
        },
        {
          "indexed": true,
          "internalType": "address",
          "name": "operator",
          "type": "address"
        },
        {
          "indexed": false,
          "internalType": "bool",
          "name": "approved",
          "type": "bool"
        }
      ],
      "name": "ApprovalForAll",
      "type": "event"
    },
    {
      "anonymous": false,
      "inputs": [
        {
          "indexed": false,
          "internalType": "uint256",
          "name": "_fromTokenId",
          "type": "uint256"
        },
        {
          "indexed": false,
          "internalType": "uint256",
          "name": "_toTokenId",
          "type": "uint256"
        }
      ],
      "name": "BatchMetadataUpdate",
      "type": "event"
    },
    {
      "anonymous": false,
      "inputs": [
        {
          "indexed": true,
          "internalType": "uint256",
          "name": "tokenId",
          "type": "uint256"
        }
      ],
      "name": "LeaseExpired",
      "type": "event"
    },
    {
      "anonymous": false,
      "inputs": [
        {
          "indexed": true,
          "internalType": "uint256",
          "name": "tokenId",
          "type": "uint256"
        },
        {
          "indexed": true,
          "internalType": "address",
          "name": "from",
          "type": "address"
        },
        {
          "indexed": true,
          "internalType": "address",
          "name": "to",
          "type": "address"
        }
      ],
      "name": "LeaseTransferred",
      "type": "event"
    },
    {
      "anonymous": false,
      "inputs": [
        {
          "indexed": false,
          "internalType": "uint256",
          "name": "_tokenId",
          "type": "uint256"
        }
      ],
      "name": "MetadataUpdate",
      "type": "event"
    },
    {
      "anonymous": false,
      "inputs": [
        {
          "indexed": true,
          "internalType": "address",
          "name": "previousOwner",
          "type": "address"
        },
        {
          "indexed": true,
          "internalType": "address",
          "name": "newOwner",
          "type": "address"
        }
      ],
      "name": "OwnershipTransferred",
      "type": "event"
    },
    {
      "anonymous": false,
      "inputs": [
        {
          "indexed": true,
          "internalType": "uint256",
          "name": "tokenId",
          "type": "uint256"
        },
        {
          "indexed": true,
          "internalType": "address",
          "name": "owner",
          "type": "address"
        },
        {
          "indexed": false,
          "internalType": "string",
          "name": "metadataURI",
          "type": "string"
        },
        {
          "indexed": false,
          "internalType": "uint256",
          "name": "expirationDate",
          "type": "uint256"
        }
      ],
      "name": "TicquetteMinted",
      "type": "event"
    },
    {
      "anonymous": false,
      "inputs": [
        {
          "indexed": true,
          "internalType": "address",
          "name": "from",
          "type": "address"
        },
        {
          "indexed": true,
          "internalType": "address",
          "name": "to",
          "type": "address"
        },
        {
          "indexed": true,
          "internalType": "uint256",
          "name": "tokenId",
          "type": "uint256"
        }
      ],
      "name": "Transfer",
      "type": "event"
    },
    {
      "inputs": [
        {
          "internalType": "address",
          "name": "to",
          "type": "address"
        },
        {
          "internalType": "uint256",
          "name": "tokenId",
          "type": "uint256"
        }
      ],
      "name": "approve",
      "outputs": [],
      "stateMutability": "nonpayable",
      "type": "function"
    },
    {
      "inputs": [
        {
          "internalType": "address",
          "name": "owner",
          "type": "address"
        }
      ],
      "name": "balanceOf",
      "outputs": [
        {
          "internalType": "uint256",
          "name": "",
          "type": "uint256"
        }
      ],
      "stateMutability": "view",
      "type": "function"
    },
    {
      "inputs": [
        {
          "internalType": "uint256",
          "name": "tokenId",
          "type": "uint256"
        }
      ],
      "name": "checkLeaseExpiry",
      "outputs": [
        {
          "internalType": "bool",
          "name": "",
          "type": "bool"
        }
      ],
      "stateMutability": "nonpayable",
      "type": "function"
    },
    {
      "inputs": [
        {
          "internalType": "uint256",
          "name": "tokenId",
          "type": "uint256"
        }
      ],
      "name": "getApproved",
      "outputs": [
        {
          "internalType": "address",
          "name": "",
          "type": "address"
        }
      ],
      "stateMutability": "view",
      "type": "function"
    },
    {
      "inputs": [
        {
          "internalType": "address",
          "name": "owner",
          "type": "address"
        }
      ],
      "name": "getOwnerTokens",
      "outputs": [
        {
          "internalType": "uint256[]",
          "name": "",
          "type": "uint256[]"
        }
      ],
      "stateMutability": "view",
      "type": "function"
    },
    {
      "inputs": [
        {
          "internalType": "uint256",
          "name": "tokenId",
          "type": "uint256"
        }
      ],
      "name": "getTicquetteMetadata",
      "outputs": [
        {
          "components": [
            {
              "internalType": "string",
              "name": "useOfSpace",
              "type": "string"
            },
            {
              "internalType": "string",
              "name": "description",
              "type": "string"
            },
            {
              "internalType": "string",
              "name": "dimensionOfSpace",
              "type": "string"
            },
            {
              "internalType": "string",
              "name": "lga",
              "type": "string"
            },
            {
              "internalType": "string",
              "name": "state",
              "type": "string"
            },
            {
              "internalType": "string",
              "name": "country",
              "type": "string"
            },
            {
              "internalType": "uint256",
              "name": "durationOfLease",
              "type": "uint256"
            },
            {
              "internalType": "uint256",
              "name": "createdAt",
              "type": "uint256"
            },
            {
              "internalType": "uint256",
              "name": "expirationDate",
              "type": "uint256"
            },
            {
              "internalType": "bool",
              "name": "isActive",
              "type": "bool"
            }
          ],
          "internalType": "struct TicquetteNFT.TicquetteMetadata",
          "name": "",
          "type": "tuple"
        }
      ],
      "stateMutability": "view",
      "type": "function"
    },
    {
      "inputs": [
        {
          "internalType": "address",
          "name": "owner",
          "type": "address"
        },
        {
          "internalType": "address",
          "name": "operator",
          "type": "address"
        }
      ],
      "name": "isApprovedForAll",
      "outputs": [
        {
          "internalType": "bool",
          "name": "",
          "type": "bool"
        }
      ],
      "stateMutability": "view",
      "type": "function"
    },
    {
      "inputs": [
        {
          "internalType": "uint256",
          "name": "tokenId",
          "type": "uint256"
        }
      ],
      "name": "isLeaseActive",
      "outputs": [
        {
          "internalType": "bool",
          "name": "",
          "type": "bool"
        }
      ],
      "stateMutability": "view",
      "type": "function"
    },
    {
      "inputs": [],
      "name": "name",
      "outputs": [
        {
          "internalType": "string",
          "name": "",
          "type": "string"
        }
      ],
      "stateMutability": "view",
      "type": "function"
    },
    {
      "inputs": [],
      "name": "owner",
      "outputs": [
        {
          "internalType": "address",
          "name": "",
          "type": "address"
        }
      ],
      "stateMutability": "view",
      "type": "function"
    },
    {
      "inputs": [
        {
          "internalType": "uint256",
          "name": "tokenId",
          "type": "uint256"
        }
      ],
      "name": "ownerOf",
      "outputs": [
        {
          "internalType": "address",
          "name": "",
          "type": "address"
        }
      ],
      "stateMutability": "view",
      "type": "function"
    },
    {
      "inputs": [
        {
          "internalType": "address",
          "name": "",
          "type": "address"
        },
        {
          "internalType": "uint256",
          "name": "",
          "type": "uint256"
        }
      ],
      "name": "ownerTokens",
      "outputs": [
        {
          "internalType": "uint256",
          "name": "",
          "type": "uint256"
        }
      ],
      "stateMutability": "view",
      "type": "function"
    },
    {
      "inputs": [],
      "name": "renounceOwnership",
      "outputs": [],
      "stateMutability": "nonpayable",
      "type": "function"
    },
    {
      "inputs": [
        {
          "internalType": "address",
          "name": "to",
          "type": "address"
        },
        {
          "internalType": "string",
          "name": "uri",
          "type": "string"
        },
        {
          "internalType": "string",
          "name": "_useOfSpace",
          "type": "string"
        },
        {
          "internalType": "string",
          "name": "_description",
          "type": "string"
        },
        {
          "internalType": "string",
          "name": "_dimensionOfSpace",
          "type": "string"
        },
        {
          "internalType": "string",
          "name": "_lga",
          "type": "string"
        },
        {
          "internalType": "string",
          "name": "_state",
          "type": "string"
        },
        {
          "internalType": "string",
          "name": "_country",
          "type": "string"
        },
        {
          "internalType": "uint256",
          "name": "_durationOfLease",
          "type": "uint256"
        }
      ],
      "name": "safeMint",
      "outputs": [
        {
          "internalType": "uint256",
          "name": "",
          "type": "uint256"
        }
      ],
      "stateMutability": "nonpayable",
      "type": "function"
    },
    {
      "inputs": [
        {
          "internalType": "address",
          "name": "from",
          "type": "address"
        },
        {
          "internalType": "address",
          "name": "to",
          "type": "address"
        },
        {
          "internalType": "uint256",
          "name": "tokenId",
          "type": "uint256"
        }
      ],
      "name": "safeTransferFrom",
      "outputs": [],
      "stateMutability": "nonpayable",
      "type": "function"
    },
    {
      "inputs": [
        {
          "internalType": "address",
          "name": "from",
          "type": "address"
        },
        {
          "internalType": "address",
          "name": "to",
          "type": "address"
        },
        {
          "internalType": "uint256",
          "name": "tokenId",
          "type": "uint256"
        },
        {
          "internalType": "bytes",
          "name": "data",
          "type": "bytes"
        }
      ],
      "name": "safeTransferFrom",
      "outputs": [],
      "stateMutability": "nonpayable",
      "type": "function"
    },
    {
      "inputs": [
        {
          "internalType": "address",
          "name": "operator",
          "type": "address"
        },
        {
          "internalType": "bool",
          "name": "approved",
          "type": "bool"
        }
      ],
      "name": "setApprovalForAll",
      "outputs": [],
      "stateMutability": "nonpayable",
      "type": "function"
    },
    {
      "inputs": [
        {
          "internalType": "bytes4",
          "name": "interfaceId",
          "type": "bytes4"
        }
      ],
      "name": "supportsInterface",
      "outputs": [
        {
          "internalType": "bool",
          "name": "",
          "type": "bool"
        }
      ],
      "stateMutability": "view",
      "type": "function"
    },
    {
      "inputs": [],
      "name": "symbol",
      "outputs": [
        {
          "internalType": "string",
          "name": "",
          "type": "string"
        }
      ],
      "stateMutability": "view",
      "type": "function"
    },
    {
      "inputs": [
        {
          "internalType": "uint256",
          "name": "",
          "type": "uint256"
        }
      ],
      "name": "ticquetteData",
      "outputs": [
        {
          "internalType": "string",
          "name": "useOfSpace",
          "type": "string"
        },
        {
          "internalType": "string",
          "name": "description",
          "type": "string"
        },
        {
          "internalType": "string",
          "name": "dimensionOfSpace",
          "type": "string"
        },
        {
          "internalType": "string",
          "name": "lga",
          "type": "string"
        },
        {
          "internalType": "string",
          "name": "state",
          "type": "string"
        },
        {
          "internalType": "string",
          "name": "country",
          "type": "string"
        },
        {
          "internalType": "uint256",
          "name": "durationOfLease",
          "type": "uint256"
        },
        {
          "internalType": "uint256",
          "name": "createdAt",
          "type": "uint256"
        },
        {
          "internalType": "uint256",
          "name": "expirationDate",
          "type": "uint256"
        },
        {
          "internalType": "bool",
          "name": "isActive",
          "type": "bool"
        }
      ],
      "stateMutability": "view",
      "type": "function"
    },
    {
      "inputs": [
        {
          "internalType": "uint256",
          "name": "tokenId",
          "type": "uint256"
        }
      ],
      "name": "tokenURI",
      "outputs": [
        {
          "internalType": "string",
          "name": "",
          "type": "string"
        }
      ],
      "stateMutability": "view",
      "type": "function"
    },
    {
      "inputs": [
        {
          "internalType": "address",
          "name": "from",
          "type": "address"
        },
        {
          "internalType": "address",
          "name": "to",
          "type": "address"
        },
        {
          "internalType": "uint256",
          "name": "tokenId",
          "type": "uint256"
        }
      ],
      "name": "transferFrom",
      "outputs": [],
      "stateMutability": "nonpayable",
      "type": "function"
    },
    {
      "inputs": [
        {
          "internalType": "address",
          "name": "newOwner",
          "type": "address"
        }
      ],
      "name": "transferOwnership",
      "outputs": [],
      "stateMutability": "nonpayable",
      "type": "function"
    },
    {
      "inputs": [],
      "name": "withdraw",
      "outputs": [],
      "stateMutability": "nonpayable",
      "type": "function"
    },
    {
      "stateMutability": "payable",
      "type": "receive"
    }
  ],
  "bytecode": "0x60806040523480156200001157600080fd5b506040516200559c3803806200559c833981810160405281019062000037919062000239565b6040518060400160405280600c81526020017f5469637175657474654e465400000000000000000000000000000000000000008152506040518060400160405280600481526020017f54494351000000000000000000000000000000000000000000000000000000008152508160009081620000b49190620004e5565b508060019081620000c69190620004e5565b505050620000e9620000dd6200010160201b60201c565b6200010960201b60201c565b620000fa816200010960201b60201c565b50620005cc565b600033905090565b6000600760009054906101000a900473ffffffffffffffffffffffffffffffffffffffff16905081600760006101000a81548173ffffffffffffffffffffffffffffffffffffffff021916908373ffffffffffffffffffffffffffffffffffffffff1602179055508173ffffffffffffffffffffffffffffffffffffffff168173ffffffffffffffffffffffffffffffffffffffff167f8be0079c531659141344cd1fd0a4f28419497f9722a3daafe3b4186f6b6457e060405160405180910390a35050565b600080fd5b600073ffffffffffffffffffffffffffffffffffffffff82169050919050565b60006200020182620001d4565b9050919050565b6200021381620001f4565b81146200021f57600080fd5b50565b600081519050620002338162000208565b92915050565b600060208284031215620002525762000251620001cf565b5b6000620002628482850162000222565b91505092915050565b600081519050919050565b7f4e487b7100000000000000000000000000000000000000000000000000000000600052604160045260246000fd5b7f4e487b7100000000000000000000000000000000000000000000000000000000600052602260045260246000fd5b60006002820490506001821680620002ed57607f821691505b602082108103620003035762000302620002a5565b5b50919050565b60008190508160005260206000209050919050565b60006020601f8301049050919050565b600082821b905092915050565b6000600883026200036d7fffffffffffffffffffffffffffffffffffffffffffffffffffffffffffffffff826200032e565b6200037986836200032e565b95508019841693508086168417925050509392505050565b6000819050919050565b6000819050919050565b6000620003c6620003c0620003ba8462000391565b6200039b565b62000391565b9050919050565b6000819050919050565b620003e283620003a5565b620003fa620003f182620003cd565b8484546200033b565b825550505050565b600090565b6200041162000402565b6200041e818484620003d7565b505050565b5b8181101562000446576200043a60008262000407565b60018101905062000424565b5050565b601f82111562000495576200045f8162000309565b6200046a846200031e565b810160208510156200047a578190505b6200049262000489856200031e565b83018262000423565b50505b505050565b600082821c905092915050565b6000620004ba600019846008026200049a565b1980831691505092915050565b6000620004d58383620004a7565b9150826002028217905092915050565b620004f0826200026b565b67ffffffffffffffff8111156200050c576200050b62000276565b5b620005188254620002d4565b620005258282856200044a565b600060209050601f8311600181146200055d576000841562000548578287015190505b620005548582620004c7565b865550620005c4565b601f1984166200056d8662000309565b60005b82811015620005975784890151825560018201915060208501945060208101905062000570565b86831015620005b75784890151620005b3601f891682620004a7565b8355505b6001600288020188555050505b505050505050565b614fc080620005dc6000396000f3fe60806040526004361061014f5760003560e01c8063715018a6116100b6578063c87b56dd1161006f578063c87b56dd146104c8578063d63d4af014610505578063e65dcf5314610542578063e985e9c51461057f578063f2fde38b146105bc578063f6a9d718146105e557610156565b8063715018a6146103cc5780638da5cb5b146103e357806395d89b411461040e578063a038f0bf14610439578063a22cb46514610476578063b88d4fde1461049f57610156565b806328b600311161010857806328b60031146102985780633ccfd60b146102d5578063404f90ae146102ec57806342842e0e146103295780636352211e1461035257806370a082311461038f57610156565b806301ffc9a71461015b57806306fdde0314610198578063081812fc146101c3578063095ea7b31461020057806323b872dd1461022957806326d232f11461025257610156565b3661015657005b600080fd5b34801561016757600080fd5b50610182600480360381019061017d9190613494565b610622565b60405161018f91906134dc565b60405180910390f35b3480156101a457600080fd5b506101ad610634565b6040516101ba9190613587565b60405180910390f35b3480156101cf57600080fd5b506101ea60048036038101906101e591906135df565b6106c6565b6040516101f7919061364d565b60405180910390f35b34801561020c57600080fd5b5061022760048036038101906102229190613694565b61070c565b005b34801561023557600080fd5b50610250600480360381019061024b91906136d4565b610823565b005b34801561025e57600080fd5b50610279600480360381019061027491906135df565b610946565b60405161028f9a99989796959493929190613736565b60405180910390f35b3480156102a457600080fd5b506102bf60048036038101906102ba9190613694565b610cd7565b6040516102cc91906137fc565b60405180910390f35b3480156102e157600080fd5b506102ea610d08565b005b3480156102f857600080fd5b50610313600480360381019061030e91906135df565b610e0f565b60405161032091906134dc565b60405180910390f35b34801561033557600080fd5b50610350600480360381019061034b91906136d4565b61123f565b005b34801561035e57600080fd5b50610379600480360381019061037491906135df565b61125f565b604051610386919061364d565b60405180910390f35b34801561039b57600080fd5b506103b660048036038101906103b19190613817565b6112e5565b6040516103c391906137fc565b60405180910390f35b3480156103d857600080fd5b506103e161139c565b005b3480156103ef57600080fd5b506103f86113b0565b604051610405919061364d565b60405180910390f35b34801561041a57600080fd5b506104236113da565b6040516104309190613587565b60405180910390f35b34801561044557600080fd5b50610460600480360381019061045b91906135df565b61146c565b60405161046d91906134dc565b60405180910390f35b34801561048257600080fd5b5061049d60048036038101906104989190613870565b611553565b005b3480156104ab57600080fd5b506104c660048036038101906104c191906139e5565b611569565b005b3480156104d457600080fd5b506104ef60048036038101906104ea91906135df565b61168e565b6040516104fc9190613587565b60405180910390f35b34801561051157600080fd5b5061052c60048036038101906105279190613817565b6116a0565b6040516105399190613b26565b60405180910390f35b34801561054e57600080fd5b5061056960048036038101906105649190613be9565b611737565b60405161057691906137fc565b60405180910390f35b34801561058b57600080fd5b506105a660048036038101906105a19190613d77565b611a3e565b6040516105b391906134dc565b60405180910390f35b3480156105c857600080fd5b506105e360048036038101906105de9190613817565b611ad2565b005b3480156105f157600080fd5b5061060c600480360381019061060791906135df565b611b55565b6040516106199190613f0d565b60405180910390f35b600061062d82611f70565b9050919050565b60606000805461064390613f5e565b80601f016020809104026020016040519081016040528092919081815260200182805461066f90613f5e565b80156106bc5780601f10610691576101008083540402835291602001916106bc565b820191906000526020600020905b81548152906001019060200180831161069f57829003601f168201915b5050505050905090565b60006106d182611fd1565b6004600083815260200190815260200160002060009054906101000a900473ffffffffffffffffffffffffffffffffffffffff169050919050565b60006107178261125f565b90508073ffffffffffffffffffffffffffffffffffffffff168373ffffffffffffffffffffffffffffffffffffffff1603610787576040517f08c379a000000000000000000000000000000000000000000000000000000000815260040161077e90614001565b60405180910390fd5b8073ffffffffffffffffffffffffffffffffffffffff166107a661201c565b73ffffffffffffffffffffffffffffffffffffffff1614806107d557506107d4816107cf61201c565b611a3e565b5b610814576040517f08c379a000000000000000000000000000000000000000000000000000000000815260040161080b90614093565b60405180910390fd5b61081e8383612024565b505050565b61082c81610e0f565b61086b576040517f08c379a0000000000000000000000000000000000000000000000000000000008152600401610862906140ff565b60405180910390fd5b61087583826120dd565b600a60008373ffffffffffffffffffffffffffffffffffffffff1673ffffffffffffffffffffffffffffffffffffffff1681526020019081526020016000208190806001815401808255809150506001900390600052602060002001600090919091909150556108e68383836121e7565b8173ffffffffffffffffffffffffffffffffffffffff168373ffffffffffffffffffffffffffffffffffffffff16827f1ba312f093cb04b535920bd78087fd95417e85ed65df3291c9fcd5d688ad719460405160405180910390a4505050565b600960205280600052604060002060009150905080600001805461096990613f5e565b80601f016020809104026020016040519081016040528092919081815260200182805461099590613f5e565b80156109e25780601f106109b7576101008083540402835291602001916109e2565b820191906000526020600020905b8154815290600101906020018083116109c557829003601f168201915b5050505050908060010180546109f790613f5e565b80601f0160208091040260200160405190810160405280929190818152602001828054610a2390613f5e565b8015610a705780601f10610a4557610100808354040283529160200191610a70565b820191906000526020600020905b815481529060010190602001808311610a5357829003601f168201915b505050505090806002018054610a8590613f5e565b80601f0160208091040260200160405190810160405280929190818152602001828054610ab190613f5e565b8015610afe5780601f10610ad357610100808354040283529160200191610afe565b820191906000526020600020905b815481529060010190602001808311610ae157829003601f168201915b505050505090806003018054610b1390613f5e565b80601f0160208091040260200160405190810160405280929190818152602001828054610b3f90613f5e565b8015610b8c5780601f10610b6157610100808354040283529160200191610b8c565b820191906000526020600020905b815481529060010190602001808311610b6f57829003601f168201915b505050505090806004018054610ba190613f5e565b80601f0160208091040260200160405190810160405280929190818152602001828054610bcd90613f5e565b8015610c1a5780601f10610bef57610100808354040283529160200191610c1a565b820191906000526020600020905b815481529060010190602001808311610bfd57829003601f168201915b505050505090806005018054610c2f90613f5e565b80601f0160208091040260200160405190810160405280929190818152602001828054610c5b90613f5e565b8015610ca85780601f10610c7d57610100808354040283529160200191610ca8565b820191906000526020600020905b815481529060010190602001808311610c8b57829003601f168201915b5050505050908060060154908060070154908060080154908060090160009054906101000a900460ff1690508a565b600a6020528160005260406000208181548110610cf357600080fd5b90600052602060002001600091509150505481565b610d10612247565b600047905060008111610d58576040517f08c379a0000000000000000000000000000000000000000000000000000000008152600401610d4f9061416b565b60405180910390fd5b6000610d626113b0565b73ffffffffffffffffffffffffffffffffffffffff1682604051610d85906141bc565b60006040518083038185875af1925050503d8060008114610dc2576040519150601f19603f3d011682016040523d82523d6000602084013e610dc7565b606091505b5050905080610e0b576040517f08c379a0000000000000000000000000000000000000000000000000000000008152600401610e029061421d565b60405180910390fd5b5050565b6000610e1a826122c5565b610e59576040517f08c379a0000000000000000000000000000000000000000000000000000000008152600401610e5090614289565b60405180910390fd5b60006009600084815260200190815260200160002060405180610140016040529081600082018054610e8a90613f5e565b80601f0160208091040260200160405190810160405280929190818152602001828054610eb690613f5e565b8015610f035780601f10610ed857610100808354040283529160200191610f03565b820191906000526020600020905b815481529060010190602001808311610ee657829003601f168201915b50505050508152602001600182018054610f1c90613f5e565b80601f0160208091040260200160405190810160405280929190818152602001828054610f4890613f5e565b8015610f955780601f10610f6a57610100808354040283529160200191610f95565b820191906000526020600020905b815481529060010190602001808311610f7857829003601f168201915b50505050508152602001600282018054610fae90613f5e565b80601f0160208091040260200160405190810160405280929190818152602001828054610fda90613f5e565b80156110275780601f10610ffc57610100808354040283529160200191611027565b820191906000526020600020905b81548152906001019060200180831161100a57829003601f168201915b5050505050815260200160038201805461104090613f5e565b80601f016020809104026020016040519081016040528092919081815260200182805461106c90613f5e565b80156110b95780601f1061108e576101008083540402835291602001916110b9565b820191906000526020600020905b81548152906001019060200180831161109c57829003601f168201915b505050505081526020016004820180546110d290613f5e565b80601f01602080910402602001604051908101604052809291908181526020018280546110fe90613f5e565b801561114b5780601f106111205761010080835404028352916020019161114b565b820191906000526020600020905b81548152906001019060200180831161112e57829003601f168201915b5050505050815260200160058201805461116490613f5e565b80601f016020809104026020016040519081016040528092919081815260200182805461119090613f5e565b80156111dd5780601f106111b2576101008083540402835291602001916111dd565b820191906000526020600020905b8154815290600101906020018083116111c057829003601f168201915b505050505081526020016006820154815260200160078201548152602001600882015481526020016009820160009054906101000a900460ff16151515158152505090508061012001518015611237575080610100015142105b915050919050565b61125a83838360405180602001604052806000815250611569565b505050565b60008061126b83612306565b9050600073ffffffffffffffffffffffffffffffffffffffff168173ffffffffffffffffffffffffffffffffffffffff16036112dc576040517f08c379a00000000000000000000000000000000000000000000000000000000081526004016112d3906142f5565b60405180910390fd5b80915050919050565b60008073ffffffffffffffffffffffffffffffffffffffff168273ffffffffffffffffffffffffffffffffffffffff1603611355576040517f08c379a000000000000000000000000000000000000000000000000000000000815260040161134c90614387565b60405180910390fd5b600360008373ffffffffffffffffffffffffffffffffffffffff1673ffffffffffffffffffffffffffffffffffffffff168152602001908152602001600020549050919050565b6113a4612247565b6113ae6000612343565b565b6000600760009054906101000a900473ffffffffffffffffffffffffffffffffffffffff16905090565b6060600180546113e990613f5e565b80601f016020809104026020016040519081016040528092919081815260200182805461141590613f5e565b80156114625780601f1061143757610100808354040283529160200191611462565b820191906000526020600020905b81548152906001019060200180831161144557829003601f168201915b5050505050905090565b6000611477826122c5565b6114b6576040517f08c379a00000000000000000000000000000000000000000000000000000000081526004016114ad90614289565b60405180910390fd5b6000600960008481526020019081526020016000209050806008015442101580156114ef57508060090160009054906101000a900460ff165b156115485760008160090160006101000a81548160ff021916908315150217905550827f5e79b7992631acdbda75417332ae27fb39479e8461abd809ba62e7a08e16a11160405160405180910390a2600191505061154e565b60009150505b919050565b61156561155e61201c565b8383612409565b5050565b61157282610e0f565b6115b1576040517f08c379a00000000000000000000000000000000000000000000000000000000081526004016115a8906140ff565b60405180910390fd5b6115bb84836120dd565b600a60008473ffffffffffffffffffffffffffffffffffffffff1673ffffffffffffffffffffffffffffffffffffffff16815260200190815260200160002082908060018154018082558091505060019003906000526020600020016000909190919091505561162d84848484612575565b8273ffffffffffffffffffffffffffffffffffffffff168473ffffffffffffffffffffffffffffffffffffffff16837f1ba312f093cb04b535920bd78087fd95417e85ed65df3291c9fcd5d688ad719460405160405180910390a450505050565b6060611699826125d7565b9050919050565b6060600a60008373ffffffffffffffffffffffffffffffffffffffff1673ffffffffffffffffffffffffffffffffffffffff16815260200190815260200160002080548060200260200160405190810160405280929190818152602001828054801561172b57602002820191906000526020600020905b815481526020019060010190808311611717575b50505050509050919050565b6000611741612247565b6303c26700821115611788576040517f08c379a000000000000000000000000000000000000000000000000000000000815260040161177f90614419565b60405180910390fd5b60008851116117cc576040517f08c379a00000000000000000000000000000000000000000000000000000000081526004016117c390614485565b60405180910390fd5b6000875111611810576040517f08c379a0000000000000000000000000000000000000000000000000000000008152600401611807906144f1565b60405180910390fd5b600061181c60086126e9565b905061182860086126f7565b60004290506000848261183b9190614540565b90506040518061014001604052808c81526020018b81526020018a8152602001898152602001888152602001878152602001868152602001838152602001828152602001600115158152506009600085815260200190815260200160002060008201518160000190816118ae9190614720565b5060208201518160010190816118c49190614720565b5060408201518160020190816118da9190614720565b5060608201518160030190816118f09190614720565b5060808201518160040190816119069190614720565b5060a082015181600501908161191c9190614720565b5060c0820151816006015560e0820151816007015561010082015181600801556101208201518160090160006101000a81548160ff021916908315150217905550905050600a60008e73ffffffffffffffffffffffffffffffffffffffff1673ffffffffffffffffffffffffffffffffffffffff1681526020019081526020016000208390806001815401808255809150506001900390600052602060002001600090919091909150556119d08d8461270d565b6119da838d61272b565b8c73ffffffffffffffffffffffffffffffffffffffff16837fdf752f55e532402126b65beec48acb60ba1c44c8b74d220ee5cd8a61153776a28e84604051611a239291906147f2565b60405180910390a38293505050509998505050505050505050565b6000600560008473ffffffffffffffffffffffffffffffffffffffff1673ffffffffffffffffffffffffffffffffffffffff16815260200190815260200160002060008373ffffffffffffffffffffffffffffffffffffffff1673ffffffffffffffffffffffffffffffffffffffff16815260200190815260200160002060009054906101000a900460ff16905092915050565b611ada612247565b600073ffffffffffffffffffffffffffffffffffffffff168173ffffffffffffffffffffffffffffffffffffffff1603611b49576040517f08c379a0000000000000000000000000000000000000000000000000000000008152600401611b4090614894565b60405180910390fd5b611b5281612343565b50565b611b5d6133d3565b611b66826122c5565b611ba5576040517f08c379a0000000000000000000000000000000000000000000000000000000008152600401611b9c90614289565b60405180910390fd5b6009600083815260200190815260200160002060405180610140016040529081600082018054611bd490613f5e565b80601f0160208091040260200160405190810160405280929190818152602001828054611c0090613f5e565b8015611c4d5780601f10611c2257610100808354040283529160200191611c4d565b820191906000526020600020905b815481529060010190602001808311611c3057829003601f168201915b50505050508152602001600182018054611c6690613f5e565b80601f0160208091040260200160405190810160405280929190818152602001828054611c9290613f5e565b8015611cdf5780601f10611cb457610100808354040283529160200191611cdf565b820191906000526020600020905b815481529060010190602001808311611cc257829003601f168201915b50505050508152602001600282018054611cf890613f5e565b80601f0160208091040260200160405190810160405280929190818152602001828054611d2490613f5e565b8015611d715780601f10611d4657610100808354040283529160200191611d71565b820191906000526020600020905b815481529060010190602001808311611d5457829003601f168201915b50505050508152602001600382018054611d8a90613f5e565b80601f0160208091040260200160405190810160405280929190818152602001828054611db690613f5e565b8015611e035780601f10611dd857610100808354040283529160200191611e03565b820191906000526020600020905b815481529060010190602001808311611de657829003601f168201915b50505050508152602001600482018054611e1c90613f5e565b80601f0160208091040260200160405190810160405280929190818152602001828054611e4890613f5e565b8015611e955780601f10611e6a57610100808354040283529160200191611e95565b820191906000526020600020905b815481529060010190602001808311611e7857829003601f168201915b50505050508152602001600582018054611eae90613f5e565b80601f0160208091040260200160405190810160405280929190818152602001828054611eda90613f5e565b8015611f275780601f10611efc57610100808354040283529160200191611f27565b820191906000526020600020905b815481529060010190602001808311611f0a57829003601f168201915b505050505081526020016006820154815260200160078201548152602001600882015481526020016009820160009054906101000a900460ff1615151515815250509050919050565b6000634906490660e01b7bffffffffffffffffffffffffffffffffffffffffffffffffffffffff1916827bffffffffffffffffffffffffffffffffffffffffffffffffffffffff19161480611fca5750611fc9826127cf565b5b9050919050565b611fda816122c5565b612019576040517f08c379a0000000000000000000000000000000000000000000000000000000008152600401612010906142f5565b60405180910390fd5b50565b600033905090565b816004600083815260200190815260200160002060006101000a81548173ffffffffffffffffffffffffffffffffffffffff021916908373ffffffffffffffffffffffffffffffffffffffff160217905550808273ffffffffffffffffffffffffffffffffffffffff166120978361125f565b73ffffffffffffffffffffffffffffffffffffffff167f8c5be1e5ebec7d5bd14f71427d1e84f3dd0314c0f7b2291e5b200ac8c7c3b92560405160405180910390a45050565b6000600a60008473ffffffffffffffffffffffffffffffffffffffff1673ffffffffffffffffffffffffffffffffffffffff168152602001908152602001600020905060005b81805490508110156121e15782828281548110612143576121426148b4565b5b9060005260206000200154036121ce57816001838054905061216591906148e3565b81548110612176576121756148b4565b5b9060005260206000200154828281548110612194576121936148b4565b5b9060005260206000200181905550818054806121b3576121b2614917565b5b600190038181906000526020600020016000905590556121e1565b80806121d990614946565b915050612123565b50505050565b6121f86121f261201c565b826128b1565b612237576040517f08c379a000000000000000000000000000000000000000000000000000000000815260040161222e90614a00565b60405180910390fd5b612242838383612946565b505050565b61224f61201c565b73ffffffffffffffffffffffffffffffffffffffff1661226d6113b0565b73ffffffffffffffffffffffffffffffffffffffff16146122c3576040517f08c379a00000000000000000000000000000000000000000000000000000000081526004016122ba90614a6c565b60405180910390fd5b565b60008073ffffffffffffffffffffffffffffffffffffffff166122e783612306565b73ffffffffffffffffffffffffffffffffffffffff1614159050919050565b60006002600083815260200190815260200160002060009054906101000a900473ffffffffffffffffffffffffffffffffffffffff169050919050565b6000600760009054906101000a900473ffffffffffffffffffffffffffffffffffffffff16905081600760006101000a81548173ffffffffffffffffffffffffffffffffffffffff021916908373ffffffffffffffffffffffffffffffffffffffff1602179055508173ffffffffffffffffffffffffffffffffffffffff168173ffffffffffffffffffffffffffffffffffffffff167f8be0079c531659141344cd1fd0a4f28419497f9722a3daafe3b4186f6b6457e060405160405180910390a35050565b8173ffffffffffffffffffffffffffffffffffffffff168373ffffffffffffffffffffffffffffffffffffffff1603612477576040517f08c379a000000000000000000000000000000000000000000000000000000000815260040161246e90614ad8565b60405180910390fd5b80600560008573ffffffffffffffffffffffffffffffffffffffff1673ffffffffffffffffffffffffffffffffffffffff16815260200190815260200160002060008473ffffffffffffffffffffffffffffffffffffffff1673ffffffffffffffffffffffffffffffffffffffff16815260200190815260200160002060006101000a81548160ff0219169083151502179055508173ffffffffffffffffffffffffffffffffffffffff168373ffffffffffffffffffffffffffffffffffffffff167f17307eab39ab6107e8899845ad3d59bd9653f200f220920489ca2b5937696c318360405161256891906134dc565b60405180910390a3505050565b61258661258061201c565b836128b1565b6125c5576040517f08c379a00000000000000000000000000000000000000000000000000000000081526004016125bc90614a00565b60405180910390fd5b6125d184848484612c3f565b50505050565b60606125e282611fd1565b600060066000848152602001908152602001600020805461260290613f5e565b80601f016020809104026020016040519081016040528092919081815260200182805461262e90613f5e565b801561267b5780601f106126505761010080835404028352916020019161267b565b820191906000526020600020905b81548152906001019060200180831161265e57829003601f168201915b50505050509050600061268c612c9b565b905060008151036126a15781925050506126e4565b6000825111156126d65780826040516020016126be929190614b34565b604051602081830303815290604052925050506126e4565b6126df84612cb2565b925050505b919050565b600081600001549050919050565b6001816000016000828254019250508190555050565b612727828260405180602001604052806000815250612d1a565b5050565b612734826122c5565b612773576040517f08c379a000000000000000000000000000000000000000000000000000000000815260040161276a90614bca565b60405180910390fd5b806006600084815260200190815260200160002090816127939190614720565b507ff8e1a15aba9398e019f0b49df1a4fde98ee17ae345cb5f6b5e2c27f5033e8ce7826040516127c391906137fc565b60405180910390a15050565b60007f80ac58cd000000000000000000000000000000000000000000000000000000007bffffffffffffffffffffffffffffffffffffffffffffffffffffffff1916827bffffffffffffffffffffffffffffffffffffffffffffffffffffffff1916148061289a57507f5b5e139f000000000000000000000000000000000000000000000000000000007bffffffffffffffffffffffffffffffffffffffffffffffffffffffff1916827bffffffffffffffffffffffffffffffffffffffffffffffffffffffff1916145b806128aa57506128a982612d75565b5b9050919050565b6000806128bd8361125f565b90508073ffffffffffffffffffffffffffffffffffffffff168473ffffffffffffffffffffffffffffffffffffffff1614806128ff57506128fe8185611a3e565b5b8061293d57508373ffffffffffffffffffffffffffffffffffffffff16612925846106c6565b73ffffffffffffffffffffffffffffffffffffffff16145b91505092915050565b8273ffffffffffffffffffffffffffffffffffffffff166129668261125f565b73ffffffffffffffffffffffffffffffffffffffff16146129bc576040517f08c379a00000000000000000000000000000000000000000000000000000000081526004016129b390614c5c565b60405180910390fd5b600073ffffffffffffffffffffffffffffffffffffffff168273ffffffffffffffffffffffffffffffffffffffff1603612a2b576040517f08c379a0000000000000000000000000000000000000000000000000000000008152600401612a2290614cee565b60405180910390fd5b612a388383836001612ddf565b8273ffffffffffffffffffffffffffffffffffffffff16612a588261125f565b73ffffffffffffffffffffffffffffffffffffffff1614612aae576040517f08c379a0000000000000000000000000000000000000000000000000000000008152600401612aa590614c5c565b60405180910390fd5b6004600082815260200190815260200160002060006101000a81549073ffffffffffffffffffffffffffffffffffffffff02191690556001600360008573ffffffffffffffffffffffffffffffffffffffff1673ffffffffffffffffffffffffffffffffffffffff168152602001908152602001600020600082825403925050819055506001600360008473ffffffffffffffffffffffffffffffffffffffff1673ffffffffffffffffffffffffffffffffffffffff16815260200190815260200160002060008282540192505081905550816002600083815260200190815260200160002060006101000a81548173ffffffffffffffffffffffffffffffffffffffff021916908373ffffffffffffffffffffffffffffffffffffffff160217905550808273ffffffffffffffffffffffffffffffffffffffff168473ffffffffffffffffffffffffffffffffffffffff167fddf252ad1be2c89b69c2b068fc378daa952ba7f163c4a11628f55a4df523b3ef60405160405180910390a4612c3a8383836001612de5565b505050565b612c4a848484612946565b612c5684848484612deb565b612c95576040517f08c379a0000000000000000000000000000000000000000000000000000000008152600401612c8c90614d80565b60405180910390fd5b50505050565b606060405180602001604052806000815250905090565b6060612cbd82611fd1565b6000612cc7612c9b565b90506000815111612ce75760405180602001604052806000815250612d12565b80612cf184612f72565b604051602001612d02929190614b34565b6040516020818303038152906040525b915050919050565b612d248383613040565b612d316000848484612deb565b612d70576040517f08c379a0000000000000000000000000000000000000000000000000000000008152600401612d6790614d80565b60405180910390fd5b505050565b60007f01ffc9a7000000000000000000000000000000000000000000000000000000007bffffffffffffffffffffffffffffffffffffffffffffffffffffffff1916827bffffffffffffffffffffffffffffffffffffffffffffffffffffffff1916149050919050565b50505050565b50505050565b6000612e0c8473ffffffffffffffffffffffffffffffffffffffff1661325d565b15612f65578373ffffffffffffffffffffffffffffffffffffffff1663150b7a02612e3561201c565b8786866040518563ffffffff1660e01b8152600401612e579493929190614df5565b6020604051808303816000875af1925050508015612e9357506040513d601f19601f82011682018060405250810190612e909190614e56565b60015b612f15573d8060008114612ec3576040519150601f19603f3d011682016040523d82523d6000602084013e612ec8565b606091505b506000815103612f0d576040517f08c379a0000000000000000000000000000000000000000000000000000000008152600401612f0490614d80565b60405180910390fd5b805181602001fd5b63150b7a0260e01b7bffffffffffffffffffffffffffffffffffffffffffffffffffffffff1916817bffffffffffffffffffffffffffffffffffffffffffffffffffffffff191614915050612f6a565b600190505b949350505050565b606060006001612f8184613280565b01905060008167ffffffffffffffff811115612fa057612f9f6138ba565b5b6040519080825280601f01601f191660200182016040528015612fd25781602001600182028036833780820191505090505b509050600082602001820190505b600115613035578080600190039150507f3031323334353637383961626364656600000000000000000000000000000000600a86061a8153600a858161302957613028614e83565b5b04945060008503612fe0575b819350505050919050565b600073ffffffffffffffffffffffffffffffffffffffff168273ffffffffffffffffffffffffffffffffffffffff16036130af576040517f08c379a00000000000000000000000000000000000000000000000000000000081526004016130a690614efe565b60405180910390fd5b6130b8816122c5565b156130f8576040517f08c379a00000000000000000000000000000000000000000000000000000000081526004016130ef90614f6a565b60405180910390fd5b613106600083836001612ddf565b61310f816122c5565b1561314f576040517f08c379a000000000000000000000000000000000000000000000000000000000815260040161314690614f6a565b60405180910390fd5b6001600360008473ffffffffffffffffffffffffffffffffffffffff1673ffffffffffffffffffffffffffffffffffffffff16815260200190815260200160002060008282540192505081905550816002600083815260200190815260200160002060006101000a81548173ffffffffffffffffffffffffffffffffffffffff021916908373ffffffffffffffffffffffffffffffffffffffff160217905550808273ffffffffffffffffffffffffffffffffffffffff16600073ffffffffffffffffffffffffffffffffffffffff167fddf252ad1be2c89b69c2b068fc378daa952ba7f163c4a11628f55a4df523b3ef60405160405180910390a4613259600083836001612de5565b5050565b6000808273ffffffffffffffffffffffffffffffffffffffff163b119050919050565b600080600090507a184f03e93ff9f4daa797ed6e38ed64bf6a1f01000000000000000083106132de577a184f03e93ff9f4daa797ed6e38ed64bf6a1f01000000000000000083816132d4576132d3614e83565b5b0492506040810190505b6d04ee2d6d415b85acef8100000000831061331b576d04ee2d6d415b85acef8100000000838161331157613310614e83565b5b0492506020810190505b662386f26fc10000831061334a57662386f26fc1000083816133405761333f614e83565b5b0492506010810190505b6305f5e1008310613373576305f5e100838161336957613368614e83565b5b0492506008810190505b612710831061339857612710838161338e5761338d614e83565b5b0492506004810190505b606483106133bb57606483816133b1576133b0614e83565b5b0492506002810190505b600a83106133ca576001810190505b80915050919050565b6040518061014001604052806060815260200160608152602001606081526020016060815260200160608152602001606081526020016000815260200160008152602001600081526020016000151581525090565b6000604051905090565b600080fd5b600080fd5b60007fffffffff0000000000000000000000000000000000000000000000000000000082169050919050565b6134718161343c565b811461347c57600080fd5b50565b60008135905061348e81613468565b92915050565b6000602082840312156134aa576134a9613432565b5b60006134b88482850161347f565b91505092915050565b60008115159050919050565b6134d6816134c1565b82525050565b60006020820190506134f160008301846134cd565b92915050565b600081519050919050565b600082825260208201905092915050565b60005b83811015613531578082015181840152602081019050613516565b60008484015250505050565b6000601f19601f8301169050919050565b6000613559826134f7565b6135638185613502565b9350613573818560208601613513565b61357c8161353d565b840191505092915050565b600060208201905081810360008301526135a1818461354e565b905092915050565b6000819050919050565b6135bc816135a9565b81146135c757600080fd5b50565b6000813590506135d9816135b3565b92915050565b6000602082840312156135f5576135f4613432565b5b6000613603848285016135ca565b91505092915050565b600073ffffffffffffffffffffffffffffffffffffffff82169050919050565b60006136378261360c565b9050919050565b6136478161362c565b82525050565b6000602082019050613662600083018461363e565b92915050565b6136718161362c565b811461367c57600080fd5b50565b60008135905061368e81613668565b92915050565b600080604083850312156136ab576136aa613432565b5b60006136b98582860161367f565b92505060206136ca858286016135ca565b9150509250929050565b6000806000606084860312156136ed576136ec613432565b5b60006136fb8682870161367f565b935050602061370c8682870161367f565b925050604061371d868287016135ca565b9150509250925092565b613730816135a9565b82525050565b6000610140820190508181036000830152613751818d61354e565b90508181036020830152613765818c61354e565b90508181036040830152613779818b61354e565b9050818103606083015261378d818a61354e565b905081810360808301526137a1818961354e565b905081810360a08301526137b5818861354e565b90506137c460c0830187613727565b6137d160e0830186613727565b6137df610100830185613727565b6137ed6101208301846134cd565b9b9a5050505050505050505050565b60006020820190506138116000830184613727565b92915050565b60006020828403121561382d5761382c613432565b5b600061383b8482850161367f565b91505092915050565b61384d816134c1565b811461385857600080fd5b50565b60008135905061386a81613844565b92915050565b6000806040838503121561388757613886613432565b5b60006138958582860161367f565b92505060206138a68582860161385b565b9150509250929050565b600080fd5b600080fd5b7f4e487b7100000000000000000000000000000000000000000000000000000000600052604160045260246000fd5b6138f28261353d565b810181811067ffffffffffffffff82111715613911576139106138ba565b5b80604052505050565b6000613924613428565b905061393082826138e9565b919050565b600067ffffffffffffffff8211156139505761394f6138ba565b5b6139598261353d565b9050602081019050919050565b82818337600083830152505050565b600061398861398384613935565b61391a565b9050828152602081018484840111156139a4576139a36138b5565b5b6139af848285613966565b509392505050565b600082601f8301126139cc576139cb6138b0565b5b81356139dc848260208601613975565b91505092915050565b600080600080608085870312156139ff576139fe613432565b5b6000613a0d8782880161367f565b9450506020613a1e8782880161367f565b9350506040613a2f878288016135ca565b925050606085013567ffffffffffffffff811115613a5057613a4f613437565b5b613a5c878288016139b7565b91505092959194509250565b600081519050919050565b600082825260208201905092915050565b6000819050602082019050919050565b613a9d816135a9565b82525050565b6000613aaf8383613a94565b60208301905092915050565b6000602082019050919050565b6000613ad382613a68565b613add8185613a73565b9350613ae883613a84565b8060005b83811015613b19578151613b008882613aa3565b9750613b0b83613abb565b925050600181019050613aec565b5085935050505092915050565b60006020820190508181036000830152613b408184613ac8565b905092915050565b600067ffffffffffffffff821115613b6357613b626138ba565b5b613b6c8261353d565b9050602081019050919050565b6000613b8c613b8784613b48565b61391a565b905082815260208101848484011115613ba857613ba76138b5565b5b613bb3848285613966565b509392505050565b600082601f830112613bd057613bcf6138b0565b5b8135613be0848260208601613b79565b91505092915050565b60008060008060008060008060006101208a8c031215613c0c57613c0b613432565b5b6000613c1a8c828d0161367f565b99505060208a013567ffffffffffffffff811115613c3b57613c3a613437565b5b613c478c828d01613bbb565b98505060408a013567ffffffffffffffff811115613c6857613c67613437565b5b613c748c828d01613bbb565b97505060608a013567ffffffffffffffff811115613c9557613c94613437565b5b613ca18c828d01613bbb565b96505060808a013567ffffffffffffffff811115613cc257613cc1613437565b5b613cce8c828d01613bbb565b95505060a08a013567ffffffffffffffff811115613cef57613cee613437565b5b613cfb8c828d01613bbb565b94505060c08a013567ffffffffffffffff811115613d1c57613d1b613437565b5b613d288c828d01613bbb565b93505060e08a013567ffffffffffffffff811115613d4957613d48613437565b5b613d558c828d01613bbb565b925050610100613d678c828d016135ca565b9150509295985092959850929598565b60008060408385031215613d8e57613d8d613432565b5b6000613d9c8582860161367f565b9250506020613dad8582860161367f565b9150509250929050565b600082825260208201905092915050565b6000613dd3826134f7565b613ddd8185613db7565b9350613ded818560208601613513565b613df68161353d565b840191505092915050565b613e0a816134c1565b82525050565b6000610140830160008301518482036000860152613e2e8282613dc8565b91505060208301518482036020860152613e488282613dc8565b91505060408301518482036040860152613e628282613dc8565b91505060608301518482036060860152613e7c8282613dc8565b91505060808301518482036080860152613e968282613dc8565b91505060a083015184820360a0860152613eb08282613dc8565b91505060c0830151613ec560c0860182613a94565b5060e0830151613ed860e0860182613a94565b50610100830151613eed610100860182613a94565b50610120830151613f02610120860182613e01565b508091505092915050565b60006020820190508181036000830152613f278184613e10565b905092915050565b7f4e487b7100000000000000000000000000000000000000000000000000000000600052602260045260246000fd5b60006002820490506001821680613f7657607f821691505b602082108103613f8957613f88613f2f565b5b50919050565b7f4552433732313a20617070726f76616c20746f2063757272656e74206f776e6560008201527f7200000000000000000000000000000000000000000000000000000000000000602082015250565b6000613feb602183613502565b9150613ff682613f8f565b604082019050919050565b6000602082019050818103600083015261401a81613fde565b9050919050565b7f4552433732313a20617070726f76652063616c6c6572206973206e6f7420746f60008201527f6b656e206f776e6572206f7220617070726f76656420666f7220616c6c000000602082015250565b600061407d603d83613502565b915061408882614021565b604082019050919050565b600060208201905081810360008301526140ac81614070565b9050919050565b7f43616e6e6f74207472616e736665722065787069726564206c65617365000000600082015250565b60006140e9601d83613502565b91506140f4826140b3565b602082019050919050565b60006020820190508181036000830152614118816140dc565b9050919050565b7f4e6f2066756e647320746f207769746864726177000000000000000000000000600082015250565b6000614155601483613502565b91506141608261411f565b602082019050919050565b6000602082019050818103600083015261418481614148565b9050919050565b600081905092915050565b50565b60006141a660008361418b565b91506141b182614196565b600082019050919050565b60006141c782614199565b9150819050919050565b7f5769746864726177616c206661696c6564000000000000000000000000000000600082015250565b6000614207601183613502565b9150614212826141d1565b602082019050919050565b60006020820190508181036000830152614236816141fa565b9050919050565b7f546f6b656e20646f6573206e6f74206578697374000000000000000000000000600082015250565b6000614273601483613502565b915061427e8261423d565b602082019050919050565b600060208201905081810360008301526142a281614266565b9050919050565b7f4552433732313a20696e76616c696420746f6b656e2049440000000000000000600082015250565b60006142df601883613502565b91506142ea826142a9565b602082019050919050565b6000602082019050818103600083015261430e816142d2565b9050919050565b7f4552433732313a2061646472657373207a65726f206973206e6f74206120766160008201527f6c6964206f776e65720000000000000000000000000000000000000000000000602082015250565b6000614371602983613502565b915061437c82614315565b604082019050919050565b600060208201905081810360008301526143a081614364565b9050919050565b7f4c65617365206475726174696f6e2063616e6e6f74206578636565642032207960008201527f6561727300000000000000000000000000000000000000000000000000000000602082015250565b6000614403602483613502565b915061440e826143a7565b604082019050919050565b60006020820190508181036000830152614432816143f6565b9050919050565b7f557365206f662073706163652069732072657175697265640000000000000000600082015250565b600061446f601883613502565b915061447a82614439565b602082019050919050565b6000602082019050818103600083015261449e81614462565b9050919050565b7f4465736372697074696f6e206973207265717569726564000000000000000000600082015250565b60006144db601783613502565b91506144e6826144a5565b602082019050919050565b6000602082019050818103600083015261450a816144ce565b9050919050565b7f4e487b7100000000000000000000000000000000000000000000000000000000600052601160045260246000fd5b600061454b826135a9565b9150614556836135a9565b925082820190508082111561456e5761456d614511565b5b92915050565b60008190508160005260206000209050919050565b60006020601f8301049050919050565b600082821b905092915050565b6000600883026145d67fffffffffffffffffffffffffffffffffffffffffffffffffffffffffffffffff82614599565b6145e08683614599565b95508019841693508086168417925050509392505050565b6000819050919050565b600061461d614618614613846135a9565b6145f8565b6135a9565b9050919050565b6000819050919050565b61463783614602565b61464b61464382614624565b8484546145a6565b825550505050565b600090565b614660614653565b61466b81848461462e565b505050565b5b8181101561468f57614684600082614658565b600181019050614671565b5050565b601f8211156146d4576146a581614574565b6146ae84614589565b810160208510156146bd578190505b6146d16146c985614589565b830182614670565b50505b505050565b600082821c905092915050565b60006146f7600019846008026146d9565b1980831691505092915050565b600061471083836146e6565b9150826002028217905092915050565b614729826134f7565b67ffffffffffffffff811115614742576147416138ba565b5b61474c8254613f5e565b614757828285614693565b600060209050601f83116001811461478a5760008415614778578287015190505b6147828582614704565b8655506147ea565b601f19841661479886614574565b60005b828110156147c05784890151825560018201915060208501945060208101905061479b565b868310156147dd57848901516147d9601f8916826146e6565b8355505b6001600288020188555050505b505050505050565b6000604082019050818103600083015261480c818561354e565b905061481b6020830184613727565b9392505050565b7f4f776e61626c653a206e6577206f776e657220697320746865207a65726f206160008201527f6464726573730000000000000000000000000000000000000000000000000000602082015250565b600061487e602683613502565b915061488982614822565b604082019050919050565b600060208201905081810360008301526148ad81614871565b9050919050565b7f4e487b7100000000000000000000000000000000000000000000000000000000600052603260045260246000fd5b60006148ee826135a9565b91506148f9836135a9565b925082820390508181111561491157614910614511565b5b92915050565b7f4e487b7100000000000000000000000000000000000000000000000000000000600052603160045260246000fd5b6000614951826135a9565b91507fffffffffffffffffffffffffffffffffffffffffffffffffffffffffffffffff820361498357614982614511565b5b600182019050919050565b7f4552433732313a2063616c6c6572206973206e6f7420746f6b656e206f776e6560008201527f72206f7220617070726f76656400000000000000000000000000000000000000602082015250565b60006149ea602d83613502565b91506149f58261498e565b604082019050919050565b60006020820190508181036000830152614a19816149dd565b9050919050565b7f4f776e61626c653a2063616c6c6572206973206e6f7420746865206f776e6572600082015250565b6000614a56602083613502565b9150614a6182614a20565b602082019050919050565b60006020820190508181036000830152614a8581614a49565b9050919050565b7f4552433732313a20617070726f766520746f2063616c6c657200000000000000600082015250565b6000614ac2601983613502565b9150614acd82614a8c565b602082019050919050565b60006020820190508181036000830152614af181614ab5565b9050919050565b600081905092915050565b6000614b0e826134f7565b614b188185614af8565b9350614b28818560208601613513565b80840191505092915050565b6000614b408285614b03565b9150614b4c8284614b03565b91508190509392505050565b7f45524337323155524953746f726167653a2055524920736574206f66206e6f6e60008201527f6578697374656e7420746f6b656e000000000000000000000000000000000000602082015250565b6000614bb4602e83613502565b9150614bbf82614b58565b604082019050919050565b60006020820190508181036000830152614be381614ba7565b9050919050565b7f4552433732313a207472616e736665722066726f6d20696e636f72726563742060008201527f6f776e6572000000000000000000000000000000000000000000000000000000602082015250565b6000614c46602583613502565b9150614c5182614bea565b604082019050919050565b60006020820190508181036000830152614c7581614c39565b9050919050565b7f4552433732313a207472616e7366657220746f20746865207a65726f2061646460008201527f7265737300000000000000000000000000000000000000000000000000000000602082015250565b6000614cd8602483613502565b9150614ce382614c7c565b604082019050919050565b60006020820190508181036000830152614d0781614ccb565b9050919050565b7f4552433732313a207472616e7366657220746f206e6f6e20455243373231526560008201527f63656976657220696d706c656d656e7465720000000000000000000000000000602082015250565b6000614d6a603283613502565b9150614d7582614d0e565b604082019050919050565b60006020820190508181036000830152614d9981614d5d565b9050919050565b600081519050919050565b600082825260208201905092915050565b6000614dc782614da0565b614dd18185614dab565b9350614de1818560208601613513565b614dea8161353d565b840191505092915050565b6000608082019050614e0a600083018761363e565b614e17602083018661363e565b614e246040830185613727565b8181036060830152614e368184614dbc565b905095945050505050565b600081519050614e5081613468565b92915050565b600060208284031215614e6c57614e6b613432565b5b6000614e7a84828501614e41565b91505092915050565b7f4e487b7100000000000000000000000000000000000000000000000000000000600052601260045260246000fd5b7f4552433732313a206d696e7420746f20746865207a65726f2061646472657373600082015250565b6000614ee8602083613502565b9150614ef382614eb2565b602082019050919050565b60006020820190508181036000830152614f1781614edb565b9050919050565b7f4552433732313a20746f6b656e20616c7265616479206d696e74656400000000600082015250565b6000614f54601c83613502565b9150614f5f82614f1e565b602082019050919050565b60006020820190508181036000830152614f8381614f47565b905091905056fea2646970667358221220767250123f6f573f3e27da74c34dcf68489d6bbe5cf3a00d9dd0b9c6580cb6fe64736f6c63430008140033",
  "linkReferences": {},
  "deployedLinkReferences": {}
}