{
  "_format": "hh-sol-artifact-1",
  "contractName": "TicquetteNFT",
  "sourceName": "contracts/TicquetteNFT.sol",
  "abi": [
    {
      "inputs": [
        {
          "internalType": "address",
          "name": "initialOwner",
          "type": "address"
        }
      ],
      "stateMutability": "nonpayable",
      "type": "constructor"
    },
    {
      "anonymous": false,
      "inputs": [
        {
          "indexed": true,
          "internalType": "address",
          "name": "owner",
          "type": "address"
        },
        {
          "indexed": true,
          "internalType": "address",
          "name": "approved",
          "type": "address"
        },
        {
          "indexed": true,
          "internalType": "uint256",
          "name": "tokenId",
          "type": "uint256"
        }
      ],
      "name": "Approval",
      "type": "event"
    },
    {
      "anonymous": false,
      "inputs": [
        {
          "indexed": true,
          "internalType": "address",
          "name": "owner",
          "type": "address"
        },
        {
          "indexed": true,
          "internalType": "address",
          "name": "operator",
          "type": "address"
        },
        {
          "indexed": false,
          "internalType": "bool",
          "name": "approved",
          "type": "bool"
        }
      ],
      "name": "ApprovalForAll",
      "type": "event"
    },
    {
      "anonymous": false,
      "inputs": [
        {
          "indexed": false,
          "internalType": "uint256",
          "name": "_fromTokenId",
          "type": "uint256"
        },
        {
          "indexed": false,
          "internalType": "uint256",
          "name": "_toTokenId",
          "type": "uint256"
        }
      ],
      "name": "BatchMetadataUpdate",
      "type": "event"
    },
    {
      "anonymous": false,
      "inputs": [
        {
          "indexed": true,
          "internalType": "uint256",
          "name": "tokenId",
          "type": "uint256"
        },
        {
          "indexed": true,
          "internalType": "address",
          "name": "from",
          "type": "address"
        },
        {
          "indexed": true,
          "internalType": "address",
          "name": "to",
          "type": "address"
        }
      ],
      "name": "LeaseTransferred",
      "type": "event"
    },
    {
      "anonymous": false,
      "inputs": [
        {
          "indexed": false,
          "internalType": "uint256",
          "name": "_tokenId",
          "type": "uint256"
        }
      ],
      "name": "MetadataUpdate",
      "type": "event"
    },
    {
      "anonymous": false,
      "inputs": [
        {
          "indexed": true,
          "internalType": "address",
          "name": "previousOwner",
          "type": "address"
        },
        {
          "indexed": true,
          "internalType": "address",
          "name": "newOwner",
          "type": "address"
        }
      ],
      "name": "OwnershipTransferred",
      "type": "event"
    },
    {
      "anonymous": false,
      "inputs": [
        {
          "indexed": true,
          "internalType": "uint256",
          "name": "tokenId",
          "type": "uint256"
        },
        {
          "indexed": true,
          "internalType": "address",
          "name": "owner",
          "type": "address"
        },
        {
          "indexed": false,
          "internalType": "string",
          "name": "metadataURI",
          "type": "string"
        },
        {
          "indexed": false,
          "internalType": "uint256",
          "name": "expirationDate",
          "type": "uint256"
        }
      ],
      "name": "TicquetteMinted",
      "type": "event"
    },
    {
      "anonymous": false,
      "inputs": [
        {
          "indexed": true,
          "internalType": "address",
          "name": "from",
          "type": "address"
        },
        {
          "indexed": true,
          "internalType": "address",
          "name": "to",
          "type": "address"
        },
        {
          "indexed": true,
          "internalType": "uint256",
          "name": "tokenId",
          "type": "uint256"
        }
      ],
      "name": "Transfer",
      "type": "event"
    },
    {
      "inputs": [
        {
          "internalType": "address",
          "name": "to",
          "type": "address"
        },
        {
          "internalType": "uint256",
          "name": "tokenId",
          "type": "uint256"
        }
      ],
      "name": "approve",
      "outputs": [],
      "stateMutability": "nonpayable",
      "type": "function"
    },
    {
      "inputs": [
        {
          "internalType": "address",
          "name": "owner",
          "type": "address"
        }
      ],
      "name": "balanceOf",
      "outputs": [
        {
          "internalType": "uint256",
          "name": "",
          "type": "uint256"
        }
      ],
      "stateMutability": "view",
      "type": "function"
    },
    {
      "inputs": [
        {
          "internalType": "uint256",
          "name": "tokenId",
          "type": "uint256"
        }
      ],
      "name": "getApproved",
      "outputs": [
        {
          "internalType": "address",
          "name": "",
          "type": "address"
        }
      ],
      "stateMutability": "view",
      "type": "function"
    },
    {
      "inputs": [
        {
          "internalType": "address",
          "name": "owner",
          "type": "address"
        }
      ],
      "name": "getOwnerTokens",
      "outputs": [
        {
          "internalType": "uint256[]",
          "name": "",
          "type": "uint256[]"
        }
      ],
      "stateMutability": "view",
      "type": "function"
    },
    {
      "inputs": [
        {
          "internalType": "address",
          "name": "owner",
          "type": "address"
        },
        {
          "internalType": "address",
          "name": "operator",
          "type": "address"
        }
      ],
      "name": "isApprovedForAll",
      "outputs": [
        {
          "internalType": "bool",
          "name": "",
          "type": "bool"
        }
      ],
      "stateMutability": "view",
      "type": "function"
    },
    {
      "inputs": [],
      "name": "name",
      "outputs": [
        {
          "internalType": "string",
          "name": "",
          "type": "string"
        }
      ],
      "stateMutability": "view",
      "type": "function"
    },
    {
      "inputs": [],
      "name": "owner",
      "outputs": [
        {
          "internalType": "address",
          "name": "",
          "type": "address"
        }
      ],
      "stateMutability": "view",
      "type": "function"
    },
    {
      "inputs": [
        {
          "internalType": "uint256",
          "name": "tokenId",
          "type": "uint256"
        }
      ],
      "name": "ownerOf",
      "outputs": [
        {
          "internalType": "address",
          "name": "",
          "type": "address"
        }
      ],
      "stateMutability": "view",
      "type": "function"
    },
    {
      "inputs": [
        {
          "internalType": "address",
          "name": "",
          "type": "address"
        },
        {
          "internalType": "uint256",
          "name": "",
          "type": "uint256"
        }
      ],
      "name": "ownerTokens",
      "outputs": [
        {
          "internalType": "uint256",
          "name": "",
          "type": "uint256"
        }
      ],
      "stateMutability": "view",
      "type": "function"
    },
    {
      "inputs": [],
      "name": "renounceOwnership",
      "outputs": [],
      "stateMutability": "nonpayable",
      "type": "function"
    },
    {
      "inputs": [
        {
          "internalType": "address",
          "name": "to",
          "type": "address"
        },
        {
          "internalType": "string",
          "name": "uri",
          "type": "string"
        }
      ],
      "name": "safeMint",
      "outputs": [
        {
          "internalType": "uint256",
          "name": "",
          "type": "uint256"
        }
      ],
      "stateMutability": "nonpayable",
      "type": "function"
    },
    {
      "inputs": [
        {
          "internalType": "address",
          "name": "from",
          "type": "address"
        },
        {
          "internalType": "address",
          "name": "to",
          "type": "address"
        },
        {
          "internalType": "uint256",
          "name": "tokenId",
          "type": "uint256"
        }
      ],
      "name": "safeTransferFrom",
      "outputs": [],
      "stateMutability": "nonpayable",
      "type": "function"
    },
    {
      "inputs": [
        {
          "internalType": "address",
          "name": "from",
          "type": "address"
        },
        {
          "internalType": "address",
          "name": "to",
          "type": "address"
        },
        {
          "internalType": "uint256",
          "name": "tokenId",
          "type": "uint256"
        },
        {
          "internalType": "bytes",
          "name": "data",
          "type": "bytes"
        }
      ],
      "name": "safeTransferFrom",
      "outputs": [],
      "stateMutability": "nonpayable",
      "type": "function"
    },
    {
      "inputs": [
        {
          "internalType": "address",
          "name": "operator",
          "type": "address"
        },
        {
          "internalType": "bool",
          "name": "approved",
          "type": "bool"
        }
      ],
      "name": "setApprovalForAll",
      "outputs": [],
      "stateMutability": "nonpayable",
      "type": "function"
    },
    {
      "inputs": [
        {
          "internalType": "bytes4",
          "name": "interfaceId",
          "type": "bytes4"
        }
      ],
      "name": "supportsInterface",
      "outputs": [
        {
          "internalType": "bool",
          "name": "",
          "type": "bool"
        }
      ],
      "stateMutability": "view",
      "type": "function"
    },
    {
      "inputs": [],
      "name": "symbol",
      "outputs": [
        {
          "internalType": "string",
          "name": "",
          "type": "string"
        }
      ],
      "stateMutability": "view",
      "type": "function"
    },
    {
      "inputs": [
        {
          "internalType": "uint256",
          "name": "tokenId",
          "type": "uint256"
        }
      ],
      "name": "tokenURI",
      "outputs": [
        {
          "internalType": "string",
          "name": "",
          "type": "string"
        }
      ],
      "stateMutability": "view",
      "type": "function"
    },
    {
      "inputs": [
        {
          "internalType": "address",
          "name": "from",
          "type": "address"
        },
        {
          "internalType": "address",
          "name": "to",
          "type": "address"
        },
        {
          "internalType": "uint256",
          "name": "tokenId",
          "type": "uint256"
        }
      ],
      "name": "transferFrom",
      "outputs": [],
      "stateMutability": "nonpayable",
      "type": "function"
    },
    {
      "inputs": [
        {
          "internalType": "address",
          "name": "newOwner",
          "type": "address"
        }
      ],
      "name": "transferOwnership",
      "outputs": [],
      "stateMutability": "nonpayable",
      "type": "function"
    },
    {
      "inputs": [],
      "name": "withdraw",
      "outputs": [],
      "stateMutability": "nonpayable",
      "type": "function"
    },
    {
      "stateMutability": "payable",
      "type": "receive"
    }
  ],
  "bytecode": "0x60806040523480156200001157600080fd5b5060405162003f1e38038062003f1e833981810160405281019062000037919062000239565b6040518060400160405280600c81526020017f5469637175657474654e465400000000000000000000000000000000000000008152506040518060400160405280600481526020017f54494351000000000000000000000000000000000000000000000000000000008152508160009081620000b49190620004e5565b508060019081620000c69190620004e5565b505050620000e9620000dd6200010160201b60201c565b6200010960201b60201c565b620000fa816200010960201b60201c565b50620005cc565b600033905090565b6000600760009054906101000a900473ffffffffffffffffffffffffffffffffffffffff16905081600760006101000a81548173ffffffffffffffffffffffffffffffffffffffff021916908373ffffffffffffffffffffffffffffffffffffffff1602179055508173ffffffffffffffffffffffffffffffffffffffff168173ffffffffffffffffffffffffffffffffffffffff167f8be0079c531659141344cd1fd0a4f28419497f9722a3daafe3b4186f6b6457e060405160405180910390a35050565b600080fd5b600073ffffffffffffffffffffffffffffffffffffffff82169050919050565b60006200020182620001d4565b9050919050565b6200021381620001f4565b81146200021f57600080fd5b50565b600081519050620002338162000208565b92915050565b600060208284031215620002525762000251620001cf565b5b6000620002628482850162000222565b91505092915050565b600081519050919050565b7f4e487b7100000000000000000000000000000000000000000000000000000000600052604160045260246000fd5b7f4e487b7100000000000000000000000000000000000000000000000000000000600052602260045260246000fd5b60006002820490506001821680620002ed57607f821691505b602082108103620003035762000302620002a5565b5b50919050565b60008190508160005260206000209050919050565b60006020601f8301049050919050565b600082821b905092915050565b6000600883026200036d7fffffffffffffffffffffffffffffffffffffffffffffffffffffffffffffffff826200032e565b6200037986836200032e565b95508019841693508086168417925050509392505050565b6000819050919050565b6000819050919050565b6000620003c6620003c0620003ba8462000391565b6200039b565b62000391565b9050919050565b6000819050919050565b620003e283620003a5565b620003fa620003f182620003cd565b8484546200033b565b825550505050565b600090565b6200041162000402565b6200041e818484620003d7565b505050565b5b8181101562000446576200043a60008262000407565b60018101905062000424565b5050565b601f82111562000495576200045f8162000309565b6200046a846200031e565b810160208510156200047a578190505b6200049262000489856200031e565b83018262000423565b50505b505050565b600082821c905092915050565b6000620004ba600019846008026200049a565b1980831691505092915050565b6000620004d58383620004a7565b9150826002028217905092915050565b620004f0826200026b565b67ffffffffffffffff8111156200050c576200050b62000276565b5b620005188254620002d4565b620005258282856200044a565b600060209050601f8311600181146200055d576000841562000548578287015190505b620005548582620004c7565b865550620005c4565b601f1984166200056d8662000309565b60005b82811015620005975784890151825560018201915060208501945060208101905062000570565b86831015620005b75784890151620005b3601f891682620004a7565b8355505b6001600288020188555050505b505050505050565b61394280620005dc6000396000f3fe6080604052600436106101235760003560e01c8063715018a6116100a0578063c87b56dd11610064578063c87b56dd146103dc578063d204c45e14610419578063d63d4af014610456578063e985e9c514610493578063f2fde38b146104d05761012a565b8063715018a61461031d5780638da5cb5b1461033457806395d89b411461035f578063a22cb4651461038a578063b88d4fde146103b35761012a565b806328b60031116100e757806328b60031146102265780633ccfd60b1461026357806342842e0e1461027a5780636352211e146102a357806370a08231146102e05761012a565b806301ffc9a71461012f57806306fdde031461016c578063081812fc14610197578063095ea7b3146101d457806323b872dd146101fd5761012a565b3661012a57005b600080fd5b34801561013b57600080fd5b50610156600480360381019061015191906123c8565b6104f9565b6040516101639190612410565b60405180910390f35b34801561017857600080fd5b5061018161050b565b60405161018e91906124bb565b60405180910390f35b3480156101a357600080fd5b506101be60048036038101906101b99190612513565b61059d565b6040516101cb9190612581565b60405180910390f35b3480156101e057600080fd5b506101fb60048036038101906101f691906125c8565b6105e3565b005b34801561020957600080fd5b50610224600480360381019061021f9190612608565b6106fa565b005b34801561023257600080fd5b5061024d600480360381019061024891906125c8565b6107d5565b60405161025a919061266a565b60405180910390f35b34801561026f57600080fd5b50610278610806565b005b34801561028657600080fd5b506102a1600480360381019061029c9190612608565b61090d565b005b3480156102af57600080fd5b506102ca60048036038101906102c59190612513565b61092d565b6040516102d79190612581565b60405180910390f35b3480156102ec57600080fd5b5061030760048036038101906103029190612685565b6109b3565b604051610314919061266a565b60405180910390f35b34801561032957600080fd5b50610332610a6a565b005b34801561034057600080fd5b50610349610a7e565b6040516103569190612581565b60405180910390f35b34801561036b57600080fd5b50610374610aa8565b60405161038191906124bb565b60405180910390f35b34801561039657600080fd5b506103b160048036038101906103ac91906126de565b610b3a565b005b3480156103bf57600080fd5b506103da60048036038101906103d59190612853565b610b50565b005b3480156103e857600080fd5b5061040360048036038101906103fe9190612513565b610c2d565b60405161041091906124bb565b60405180910390f35b34801561042557600080fd5b50610440600480360381019061043b9190612977565b610c3f565b60405161044d919061266a565b60405180910390f35b34801561046257600080fd5b5061047d60048036038101906104789190612685565b610d4b565b60405161048a9190612a91565b60405180910390f35b34801561049f57600080fd5b506104ba60048036038101906104b59190612ab3565b610de2565b6040516104c79190612410565b60405180910390f35b3480156104dc57600080fd5b506104f760048036038101906104f29190612685565b610e76565b005b600061050482610ef9565b9050919050565b60606000805461051a90612b22565b80601f016020809104026020016040519081016040528092919081815260200182805461054690612b22565b80156105935780601f1061056857610100808354040283529160200191610593565b820191906000526020600020905b81548152906001019060200180831161057657829003601f168201915b5050505050905090565b60006105a882610f5a565b6004600083815260200190815260200160002060009054906101000a900473ffffffffffffffffffffffffffffffffffffffff169050919050565b60006105ee8261092d565b90508073ffffffffffffffffffffffffffffffffffffffff168373ffffffffffffffffffffffffffffffffffffffff160361065e576040517f08c379a000000000000000000000000000000000000000000000000000000000815260040161065590612bc5565b60405180910390fd5b8073ffffffffffffffffffffffffffffffffffffffff1661067d610fa5565b73ffffffffffffffffffffffffffffffffffffffff1614806106ac57506106ab816106a6610fa5565b610de2565b5b6106eb576040517f08c379a00000000000000000000000000000000000000000000000000000000081526004016106e290612c57565b60405180910390fd5b6106f58383610fad565b505050565b6107048382611066565b600960008373ffffffffffffffffffffffffffffffffffffffff1673ffffffffffffffffffffffffffffffffffffffff168152602001908152602001600020819080600181540180825580915050600190039060005260206000200160009091909190915055610775838383611170565b8173ffffffffffffffffffffffffffffffffffffffff168373ffffffffffffffffffffffffffffffffffffffff16827f1ba312f093cb04b535920bd78087fd95417e85ed65df3291c9fcd5d688ad719460405160405180910390a4505050565b600960205281600052604060002081815481106107f157600080fd5b90600052602060002001600091509150505481565b61080e6111d0565b600047905060008111610856576040517f08c379a000000000000000000000000000000000000000000000000000000000815260040161084d90612cc3565b60405180910390fd5b6000610860610a7e565b73ffffffffffffffffffffffffffffffffffffffff168260405161088390612d14565b60006040518083038185875af1925050503d80600081146108c0576040519150601f19603f3d011682016040523d82523d6000602084013e6108c5565b606091505b5050905080610909576040517f08c379a000000000000000000000000000000000000000000000000000000000815260040161090090612d75565b60405180910390fd5b5050565b61092883838360405180602001604052806000815250610b50565b505050565b6000806109398361124e565b9050600073ffffffffffffffffffffffffffffffffffffffff168173ffffffffffffffffffffffffffffffffffffffff16036109aa576040517f08c379a00000000000000000000000000000000000000000000000000000000081526004016109a190612de1565b60405180910390fd5b80915050919050565b60008073ffffffffffffffffffffffffffffffffffffffff168273ffffffffffffffffffffffffffffffffffffffff1603610a23576040517f08c379a0000000000000000000000000000000000000000000000000000000008152600401610a1a90612e73565b60405180910390fd5b600360008373ffffffffffffffffffffffffffffffffffffffff1673ffffffffffffffffffffffffffffffffffffffff168152602001908152602001600020549050919050565b610a726111d0565b610a7c600061128b565b565b6000600760009054906101000a900473ffffffffffffffffffffffffffffffffffffffff16905090565b606060018054610ab790612b22565b80601f0160208091040260200160405190810160405280929190818152602001828054610ae390612b22565b8015610b305780601f10610b0557610100808354040283529160200191610b30565b820191906000526020600020905b815481529060010190602001808311610b1357829003601f168201915b5050505050905090565b610b4c610b45610fa5565b8383611351565b5050565b610b5a8483611066565b600960008473ffffffffffffffffffffffffffffffffffffffff1673ffffffffffffffffffffffffffffffffffffffff168152602001908152602001600020829080600181540180825580915050600190039060005260206000200160009091909190915055610bcc848484846114bd565b8273ffffffffffffffffffffffffffffffffffffffff168473ffffffffffffffffffffffffffffffffffffffff16837f1ba312f093cb04b535920bd78087fd95417e85ed65df3291c9fcd5d688ad719460405160405180910390a450505050565b6060610c388261151f565b9050919050565b6000610c496111d0565b6000610c556008611631565b9050610c61600861163f565b600960008573ffffffffffffffffffffffffffffffffffffffff1673ffffffffffffffffffffffffffffffffffffffff168152602001908152602001600020819080600181540180825580915050600190039060005260206000200160009091909190915055610cd18482611655565b610cdb8184611673565b60006301e1338042610ced9190612ec2565b90508473ffffffffffffffffffffffffffffffffffffffff16827fdf752f55e532402126b65beec48acb60ba1c44c8b74d220ee5cd8a61153776a28684604051610d38929190612ef6565b60405180910390a3819250505092915050565b6060600960008373ffffffffffffffffffffffffffffffffffffffff1673ffffffffffffffffffffffffffffffffffffffff168152602001908152602001600020805480602002602001604051908101604052809291908181526020018280548015610dd657602002820191906000526020600020905b815481526020019060010190808311610dc2575b50505050509050919050565b6000600560008473ffffffffffffffffffffffffffffffffffffffff1673ffffffffffffffffffffffffffffffffffffffff16815260200190815260200160002060008373ffffffffffffffffffffffffffffffffffffffff1673ffffffffffffffffffffffffffffffffffffffff16815260200190815260200160002060009054906101000a900460ff16905092915050565b610e7e6111d0565b600073ffffffffffffffffffffffffffffffffffffffff168173ffffffffffffffffffffffffffffffffffffffff1603610eed576040517f08c379a0000000000000000000000000000000000000000000000000000000008152600401610ee490612f98565b60405180910390fd5b610ef68161128b565b50565b6000634906490660e01b7bffffffffffffffffffffffffffffffffffffffffffffffffffffffff1916827bffffffffffffffffffffffffffffffffffffffffffffffffffffffff19161480610f535750610f5282611717565b5b9050919050565b610f63816117f9565b610fa2576040517f08c379a0000000000000000000000000000000000000000000000000000000008152600401610f9990612de1565b60405180910390fd5b50565b600033905090565b816004600083815260200190815260200160002060006101000a81548173ffffffffffffffffffffffffffffffffffffffff021916908373ffffffffffffffffffffffffffffffffffffffff160217905550808273ffffffffffffffffffffffffffffffffffffffff166110208361092d565b73ffffffffffffffffffffffffffffffffffffffff167f8c5be1e5ebec7d5bd14f71427d1e84f3dd0314c0f7b2291e5b200ac8c7c3b92560405160405180910390a45050565b6000600960008473ffffffffffffffffffffffffffffffffffffffff1673ffffffffffffffffffffffffffffffffffffffff168152602001908152602001600020905060005b818054905081101561116a57828282815481106110cc576110cb612fb8565b5b9060005260206000200154036111575781600183805490506110ee9190612fe7565b815481106110ff576110fe612fb8565b5b906000526020600020015482828154811061111d5761111c612fb8565b5b90600052602060002001819055508180548061113c5761113b61301b565b5b6001900381819060005260206000200160009055905561116a565b80806111629061304a565b9150506110ac565b50505050565b61118161117b610fa5565b8261183a565b6111c0576040517f08c379a00000000000000000000000000000000000000000000000000000000081526004016111b790613104565b60405180910390fd5b6111cb8383836118cf565b505050565b6111d8610fa5565b73ffffffffffffffffffffffffffffffffffffffff166111f6610a7e565b73ffffffffffffffffffffffffffffffffffffffff161461124c576040517f08c379a000000000000000000000000000000000000000000000000000000000815260040161124390613170565b60405180910390fd5b565b60006002600083815260200190815260200160002060009054906101000a900473ffffffffffffffffffffffffffffffffffffffff169050919050565b6000600760009054906101000a900473ffffffffffffffffffffffffffffffffffffffff16905081600760006101000a81548173ffffffffffffffffffffffffffffffffffffffff021916908373ffffffffffffffffffffffffffffffffffffffff1602179055508173ffffffffffffffffffffffffffffffffffffffff168173ffffffffffffffffffffffffffffffffffffffff167f8be0079c531659141344cd1fd0a4f28419497f9722a3daafe3b4186f6b6457e060405160405180910390a35050565b8173ffffffffffffffffffffffffffffffffffffffff168373ffffffffffffffffffffffffffffffffffffffff16036113bf576040517f08c379a00000000000000000000000000000000000000000000000000000000081526004016113b6906131dc565b60405180910390fd5b80600560008573ffffffffffffffffffffffffffffffffffffffff1673ffffffffffffffffffffffffffffffffffffffff16815260200190815260200160002060008473ffffffffffffffffffffffffffffffffffffffff1673ffffffffffffffffffffffffffffffffffffffff16815260200190815260200160002060006101000a81548160ff0219169083151502179055508173ffffffffffffffffffffffffffffffffffffffff168373ffffffffffffffffffffffffffffffffffffffff167f17307eab39ab6107e8899845ad3d59bd9653f200f220920489ca2b5937696c31836040516114b09190612410565b60405180910390a3505050565b6114ce6114c8610fa5565b8361183a565b61150d576040517f08c379a000000000000000000000000000000000000000000000000000000000815260040161150490613104565b60405180910390fd5b61151984848484611bc8565b50505050565b606061152a82610f5a565b600060066000848152602001908152602001600020805461154a90612b22565b80601f016020809104026020016040519081016040528092919081815260200182805461157690612b22565b80156115c35780601f10611598576101008083540402835291602001916115c3565b820191906000526020600020905b8154815290600101906020018083116115a657829003601f168201915b5050505050905060006115d4611c24565b905060008151036115e957819250505061162c565b60008251111561161e578082604051602001611606929190613238565b6040516020818303038152906040529250505061162c565b61162784611c3b565b925050505b919050565b600081600001549050919050565b6001816000016000828254019250508190555050565b61166f828260405180602001604052806000815250611ca3565b5050565b61167c826117f9565b6116bb576040517f08c379a00000000000000000000000000000000000000000000000000000000081526004016116b2906132ce565b60405180910390fd5b806006600084815260200190815260200160002090816116db919061349a565b507ff8e1a15aba9398e019f0b49df1a4fde98ee17ae345cb5f6b5e2c27f5033e8ce78260405161170b919061266a565b60405180910390a15050565b60007f80ac58cd000000000000000000000000000000000000000000000000000000007bffffffffffffffffffffffffffffffffffffffffffffffffffffffff1916827bffffffffffffffffffffffffffffffffffffffffffffffffffffffff191614806117e257507f5b5e139f000000000000000000000000000000000000000000000000000000007bffffffffffffffffffffffffffffffffffffffffffffffffffffffff1916827bffffffffffffffffffffffffffffffffffffffffffffffffffffffff1916145b806117f257506117f182611cfe565b5b9050919050565b60008073ffffffffffffffffffffffffffffffffffffffff1661181b8361124e565b73ffffffffffffffffffffffffffffffffffffffff1614159050919050565b6000806118468361092d565b90508073ffffffffffffffffffffffffffffffffffffffff168473ffffffffffffffffffffffffffffffffffffffff16148061188857506118878185610de2565b5b806118c657508373ffffffffffffffffffffffffffffffffffffffff166118ae8461059d565b73ffffffffffffffffffffffffffffffffffffffff16145b91505092915050565b8273ffffffffffffffffffffffffffffffffffffffff166118ef8261092d565b73ffffffffffffffffffffffffffffffffffffffff1614611945576040517f08c379a000000000000000000000000000000000000000000000000000000000815260040161193c906135de565b60405180910390fd5b600073ffffffffffffffffffffffffffffffffffffffff168273ffffffffffffffffffffffffffffffffffffffff16036119b4576040517f08c379a00000000000000000000000000000000000000000000000000000000081526004016119ab90613670565b60405180910390fd5b6119c18383836001611d68565b8273ffffffffffffffffffffffffffffffffffffffff166119e18261092d565b73ffffffffffffffffffffffffffffffffffffffff1614611a37576040517f08c379a0000000000000000000000000000000000000000000000000000000008152600401611a2e906135de565b60405180910390fd5b6004600082815260200190815260200160002060006101000a81549073ffffffffffffffffffffffffffffffffffffffff02191690556001600360008573ffffffffffffffffffffffffffffffffffffffff1673ffffffffffffffffffffffffffffffffffffffff168152602001908152602001600020600082825403925050819055506001600360008473ffffffffffffffffffffffffffffffffffffffff1673ffffffffffffffffffffffffffffffffffffffff16815260200190815260200160002060008282540192505081905550816002600083815260200190815260200160002060006101000a81548173ffffffffffffffffffffffffffffffffffffffff021916908373ffffffffffffffffffffffffffffffffffffffff160217905550808273ffffffffffffffffffffffffffffffffffffffff168473ffffffffffffffffffffffffffffffffffffffff167fddf252ad1be2c89b69c2b068fc378daa952ba7f163c4a11628f55a4df523b3ef60405160405180910390a4611bc38383836001611d6e565b505050565b611bd38484846118cf565b611bdf84848484611d74565b611c1e576040517f08c379a0000000000000000000000000000000000000000000000000000000008152600401611c1590613702565b60405180910390fd5b50505050565b606060405180602001604052806000815250905090565b6060611c4682610f5a565b6000611c50611c24565b90506000815111611c705760405180602001604052806000815250611c9b565b80611c7a84611efb565b604051602001611c8b929190613238565b6040516020818303038152906040525b915050919050565b611cad8383611fc9565b611cba6000848484611d74565b611cf9576040517f08c379a0000000000000000000000000000000000000000000000000000000008152600401611cf090613702565b60405180910390fd5b505050565b60007f01ffc9a7000000000000000000000000000000000000000000000000000000007bffffffffffffffffffffffffffffffffffffffffffffffffffffffff1916827bffffffffffffffffffffffffffffffffffffffffffffffffffffffff1916149050919050565b50505050565b50505050565b6000611d958473ffffffffffffffffffffffffffffffffffffffff166121e6565b15611eee578373ffffffffffffffffffffffffffffffffffffffff1663150b7a02611dbe610fa5565b8786866040518563ffffffff1660e01b8152600401611de09493929190613777565b6020604051808303816000875af1925050508015611e1c57506040513d601f19601f82011682018060405250810190611e1991906137d8565b60015b611e9e573d8060008114611e4c576040519150601f19603f3d011682016040523d82523d6000602084013e611e51565b606091505b506000815103611e96576040517f08c379a0000000000000000000000000000000000000000000000000000000008152600401611e8d90613702565b60405180910390fd5b805181602001fd5b63150b7a0260e01b7bffffffffffffffffffffffffffffffffffffffffffffffffffffffff1916817bffffffffffffffffffffffffffffffffffffffffffffffffffffffff191614915050611ef3565b600190505b949350505050565b606060006001611f0a84612209565b01905060008167ffffffffffffffff811115611f2957611f28612728565b5b6040519080825280601f01601f191660200182016040528015611f5b5781602001600182028036833780820191505090505b509050600082602001820190505b600115611fbe578080600190039150507f3031323334353637383961626364656600000000000000000000000000000000600a86061a8153600a8581611fb257611fb1613805565b5b04945060008503611f69575b819350505050919050565b600073ffffffffffffffffffffffffffffffffffffffff168273ffffffffffffffffffffffffffffffffffffffff1603612038576040517f08c379a000000000000000000000000000000000000000000000000000000000815260040161202f90613880565b60405180910390fd5b612041816117f9565b15612081576040517f08c379a0000000000000000000000000000000000000000000000000000000008152600401612078906138ec565b60405180910390fd5b61208f600083836001611d68565b612098816117f9565b156120d8576040517f08c379a00000000000000000000000000000000000000000000000000000000081526004016120cf906138ec565b60405180910390fd5b6001600360008473ffffffffffffffffffffffffffffffffffffffff1673ffffffffffffffffffffffffffffffffffffffff16815260200190815260200160002060008282540192505081905550816002600083815260200190815260200160002060006101000a81548173ffffffffffffffffffffffffffffffffffffffff021916908373ffffffffffffffffffffffffffffffffffffffff160217905550808273ffffffffffffffffffffffffffffffffffffffff16600073ffffffffffffffffffffffffffffffffffffffff167fddf252ad1be2c89b69c2b068fc378daa952ba7f163c4a11628f55a4df523b3ef60405160405180910390a46121e2600083836001611d6e565b5050565b6000808273ffffffffffffffffffffffffffffffffffffffff163b119050919050565b600080600090507a184f03e93ff9f4daa797ed6e38ed64bf6a1f0100000000000000008310612267577a184f03e93ff9f4daa797ed6e38ed64bf6a1f010000000000000000838161225d5761225c613805565b5b0492506040810190505b6d04ee2d6d415b85acef810000000083106122a4576d04ee2d6d415b85acef8100000000838161229a57612299613805565b5b0492506020810190505b662386f26fc1000083106122d357662386f26fc1000083816122c9576122c8613805565b5b0492506010810190505b6305f5e10083106122fc576305f5e10083816122f2576122f1613805565b5b0492506008810190505b612710831061232157612710838161231757612316613805565b5b0492506004810190505b60648310612344576064838161233a57612339613805565b5b0492506002810190505b600a8310612353576001810190505b80915050919050565b6000604051905090565b600080fd5b600080fd5b60007fffffffff0000000000000000000000000000000000000000000000000000000082169050919050565b6123a581612370565b81146123b057600080fd5b50565b6000813590506123c28161239c565b92915050565b6000602082840312156123de576123dd612366565b5b60006123ec848285016123b3565b91505092915050565b60008115159050919050565b61240a816123f5565b82525050565b60006020820190506124256000830184612401565b92915050565b600081519050919050565b600082825260208201905092915050565b60005b8381101561246557808201518184015260208101905061244a565b60008484015250505050565b6000601f19601f8301169050919050565b600061248d8261242b565b6124978185612436565b93506124a7818560208601612447565b6124b081612471565b840191505092915050565b600060208201905081810360008301526124d58184612482565b905092915050565b6000819050919050565b6124f0816124dd565b81146124fb57600080fd5b50565b60008135905061250d816124e7565b92915050565b60006020828403121561252957612528612366565b5b6000612537848285016124fe565b91505092915050565b600073ffffffffffffffffffffffffffffffffffffffff82169050919050565b600061256b82612540565b9050919050565b61257b81612560565b82525050565b60006020820190506125966000830184612572565b92915050565b6125a581612560565b81146125b057600080fd5b50565b6000813590506125c28161259c565b92915050565b600080604083850312156125df576125de612366565b5b60006125ed858286016125b3565b92505060206125fe858286016124fe565b9150509250929050565b60008060006060848603121561262157612620612366565b5b600061262f868287016125b3565b9350506020612640868287016125b3565b9250506040612651868287016124fe565b9150509250925092565b612664816124dd565b82525050565b600060208201905061267f600083018461265b565b92915050565b60006020828403121561269b5761269a612366565b5b60006126a9848285016125b3565b91505092915050565b6126bb816123f5565b81146126c657600080fd5b50565b6000813590506126d8816126b2565b92915050565b600080604083850312156126f5576126f4612366565b5b6000612703858286016125b3565b9250506020612714858286016126c9565b9150509250929050565b600080fd5b600080fd5b7f4e487b7100000000000000000000000000000000000000000000000000000000600052604160045260246000fd5b61276082612471565b810181811067ffffffffffffffff8211171561277f5761277e612728565b5b80604052505050565b600061279261235c565b905061279e8282612757565b919050565b600067ffffffffffffffff8211156127be576127bd612728565b5b6127c782612471565b9050602081019050919050565b82818337600083830152505050565b60006127f66127f1846127a3565b612788565b90508281526020810184848401111561281257612811612723565b5b61281d8482856127d4565b509392505050565b600082601f83011261283a5761283961271e565b5b813561284a8482602086016127e3565b91505092915050565b6000806000806080858703121561286d5761286c612366565b5b600061287b878288016125b3565b945050602061288c878288016125b3565b935050604061289d878288016124fe565b925050606085013567ffffffffffffffff8111156128be576128bd61236b565b5b6128ca87828801612825565b91505092959194509250565b600067ffffffffffffffff8211156128f1576128f0612728565b5b6128fa82612471565b9050602081019050919050565b600061291a612915846128d6565b612788565b90508281526020810184848401111561293657612935612723565b5b6129418482856127d4565b509392505050565b600082601f83011261295e5761295d61271e565b5b813561296e848260208601612907565b91505092915050565b6000806040838503121561298e5761298d612366565b5b600061299c858286016125b3565b925050602083013567ffffffffffffffff8111156129bd576129bc61236b565b5b6129c985828601612949565b9150509250929050565b600081519050919050565b600082825260208201905092915050565b6000819050602082019050919050565b612a08816124dd565b82525050565b6000612a1a83836129ff565b60208301905092915050565b6000602082019050919050565b6000612a3e826129d3565b612a4881856129de565b9350612a53836129ef565b8060005b83811015612a84578151612a6b8882612a0e565b9750612a7683612a26565b925050600181019050612a57565b5085935050505092915050565b60006020820190508181036000830152612aab8184612a33565b905092915050565b60008060408385031215612aca57612ac9612366565b5b6000612ad8858286016125b3565b9250506020612ae9858286016125b3565b9150509250929050565b7f4e487b7100000000000000000000000000000000000000000000000000000000600052602260045260246000fd5b60006002820490506001821680612b3a57607f821691505b602082108103612b4d57612b4c612af3565b5b50919050565b7f4552433732313a20617070726f76616c20746f2063757272656e74206f776e6560008201527f7200000000000000000000000000000000000000000000000000000000000000602082015250565b6000612baf602183612436565b9150612bba82612b53565b604082019050919050565b60006020820190508181036000830152612bde81612ba2565b9050919050565b7f4552433732313a20617070726f76652063616c6c6572206973206e6f7420746f60008201527f6b656e206f776e6572206f7220617070726f76656420666f7220616c6c000000602082015250565b6000612c41603d83612436565b9150612c4c82612be5565b604082019050919050565b60006020820190508181036000830152612c7081612c34565b9050919050565b7f4e6f2066756e647320746f207769746864726177000000000000000000000000600082015250565b6000612cad601483612436565b9150612cb882612c77565b602082019050919050565b60006020820190508181036000830152612cdc81612ca0565b9050919050565b600081905092915050565b50565b6000612cfe600083612ce3565b9150612d0982612cee565b600082019050919050565b6000612d1f82612cf1565b9150819050919050565b7f5769746864726177616c206661696c6564000000000000000000000000000000600082015250565b6000612d5f601183612436565b9150612d6a82612d29565b602082019050919050565b60006020820190508181036000830152612d8e81612d52565b9050919050565b7f4552433732313a20696e76616c696420746f6b656e2049440000000000000000600082015250565b6000612dcb601883612436565b9150612dd682612d95565b602082019050919050565b60006020820190508181036000830152612dfa81612dbe565b9050919050565b7f4552433732313a2061646472657373207a65726f206973206e6f74206120766160008201527f6c6964206f776e65720000000000000000000000000000000000000000000000602082015250565b6000612e5d602983612436565b9150612e6882612e01565b604082019050919050565b60006020820190508181036000830152612e8c81612e50565b9050919050565b7f4e487b7100000000000000000000000000000000000000000000000000000000600052601160045260246000fd5b6000612ecd826124dd565b9150612ed8836124dd565b9250828201905080821115612ef057612eef612e93565b5b92915050565b60006040820190508181036000830152612f108185612482565b9050612f1f602083018461265b565b9392505050565b7f4f776e61626c653a206e6577206f776e657220697320746865207a65726f206160008201527f6464726573730000000000000000000000000000000000000000000000000000602082015250565b6000612f82602683612436565b9150612f8d82612f26565b604082019050919050565b60006020820190508181036000830152612fb181612f75565b9050919050565b7f4e487b7100000000000000000000000000000000000000000000000000000000600052603260045260246000fd5b6000612ff2826124dd565b9150612ffd836124dd565b925082820390508181111561301557613014612e93565b5b92915050565b7f4e487b7100000000000000000000000000000000000000000000000000000000600052603160045260246000fd5b6000613055826124dd565b91507fffffffffffffffffffffffffffffffffffffffffffffffffffffffffffffffff820361308757613086612e93565b5b600182019050919050565b7f4552433732313a2063616c6c6572206973206e6f7420746f6b656e206f776e6560008201527f72206f7220617070726f76656400000000000000000000000000000000000000602082015250565b60006130ee602d83612436565b91506130f982613092565b604082019050919050565b6000602082019050818103600083015261311d816130e1565b9050919050565b7f4f776e61626c653a2063616c6c6572206973206e6f7420746865206f776e6572600082015250565b600061315a602083612436565b915061316582613124565b602082019050919050565b600060208201905081810360008301526131898161314d565b9050919050565b7f4552433732313a20617070726f766520746f2063616c6c657200000000000000600082015250565b60006131c6601983612436565b91506131d182613190565b602082019050919050565b600060208201905081810360008301526131f5816131b9565b9050919050565b600081905092915050565b60006132128261242b565b61321c81856131fc565b935061322c818560208601612447565b80840191505092915050565b60006132448285613207565b91506132508284613207565b91508190509392505050565b7f45524337323155524953746f726167653a2055524920736574206f66206e6f6e60008201527f6578697374656e7420746f6b656e000000000000000000000000000000000000602082015250565b60006132b8602e83612436565b91506132c38261325c565b604082019050919050565b600060208201905081810360008301526132e7816132ab565b9050919050565b60008190508160005260206000209050919050565b60006020601f8301049050919050565b600082821b905092915050565b6000600883026133507fffffffffffffffffffffffffffffffffffffffffffffffffffffffffffffffff82613313565b61335a8683613313565b95508019841693508086168417925050509392505050565b6000819050919050565b600061339761339261338d846124dd565b613372565b6124dd565b9050919050565b6000819050919050565b6133b18361337c565b6133c56133bd8261339e565b848454613320565b825550505050565b600090565b6133da6133cd565b6133e58184846133a8565b505050565b5b81811015613409576133fe6000826133d2565b6001810190506133eb565b5050565b601f82111561344e5761341f816132ee565b61342884613303565b81016020851015613437578190505b61344b61344385613303565b8301826133ea565b50505b505050565b600082821c905092915050565b600061347160001984600802613453565b1980831691505092915050565b600061348a8383613460565b9150826002028217905092915050565b6134a38261242b565b67ffffffffffffffff8111156134bc576134bb612728565b5b6134c68254612b22565b6134d182828561340d565b600060209050601f83116001811461350457600084156134f2578287015190505b6134fc858261347e565b865550613564565b601f198416613512866132ee565b60005b8281101561353a57848901518255600182019150602085019450602081019050613515565b868310156135575784890151613553601f891682613460565b8355505b6001600288020188555050505b505050505050565b7f4552433732313a207472616e736665722066726f6d20696e636f72726563742060008201527f6f776e6572000000000000000000000000000000000000000000000000000000602082015250565b60006135c8602583612436565b91506135d38261356c565b604082019050919050565b600060208201905081810360008301526135f7816135bb565b9050919050565b7f4552433732313a207472616e7366657220746f20746865207a65726f2061646460008201527f7265737300000000000000000000000000000000000000000000000000000000602082015250565b600061365a602483612436565b9150613665826135fe565b604082019050919050565b600060208201905081810360008301526136898161364d565b9050919050565b7f4552433732313a207472616e7366657220746f206e6f6e20455243373231526560008201527f63656976657220696d706c656d656e7465720000000000000000000000000000602082015250565b60006136ec603283612436565b91506136f782613690565b604082019050919050565b6000602082019050818103600083015261371b816136df565b9050919050565b600081519050919050565b600082825260208201905092915050565b600061374982613722565b613753818561372d565b9350613763818560208601612447565b61376c81612471565b840191505092915050565b600060808201905061378c6000830187612572565b6137996020830186612572565b6137a6604083018561265b565b81810360608301526137b8818461373e565b905095945050505050565b6000815190506137d28161239c565b92915050565b6000602082840312156137ee576137ed612366565b5b60006137fc848285016137c3565b91505092915050565b7f4e487b7100000000000000000000000000000000000000000000000000000000600052601260045260246000fd5b7f4552433732313a206d696e7420746f20746865207a65726f2061646472657373600082015250565b600061386a602083612436565b915061387582613834565b602082019050919050565b600060208201905081810360008301526138998161385d565b9050919050565b7f4552433732313a20746f6b656e20616c7265616479206d696e74656400000000600082015250565b60006138d6601c83612436565b91506138e1826138a0565b602082019050919050565b60006020820190508181036000830152613905816138c9565b905091905056fea2646970667358221220cf1d78527c3d1506200846861f8fcf926b7416b41d46b0a6c5338dc72835947364736f6c63430008140033",
  "linkReferences": {},
  "deployedLinkReferences": {}
}